:020000040800F2
:10000000A04E002049010008092E0008891E0008A2
:10001000052E0008B10D000845570008000000003B
:10002000000000000000000000000000FD45000886
:100030009113000800000000AF010008A548000867
:100040006301000863010008630100086301000800
:1000500063010008630100086301000863010008F0
:1000600063010008630100086301000863010008E0
:1000700063010008630100086301000863010008D0
:1000800063010008630100086301000863010008C0
:1000900063010008630100086301000863010008B0
:1000A00063010008630100086301000863010008A0
:1000B0006301000863010008294A00086301000881
:1000C0006301000863010008630100086301000880
:1000D000630100080D520008E5520008B9530008FA
:1000E0006301000863010008630100086301000860
:1000F0006301000863010008630100086301000850
:10010000630100086301000863010008630100083F
:1001100045510008630100086301000863010008FD
:10012000630100086301000863010008630100081F
:10013000DFF810D000F078FC00480047296600087E
:10014000AFF30080A04E00200648804706480047D5
:10015000FEE7FEE7FEE7FEE7FEE7FEE7FEE7FEE777
:10016000FEE7FEE71949000831010008EFF31080AF
:1001700072B6704780F3108870471D484FF0FF013A
:100180000170002080F309881A48012101701A4883
:100190004FF08051016062B6FEE717484FF0805182
:1001A0000160704714484FF080510160704772B68B
:1001B000EFF3098028B1203880E8F00F0F49096873
:1001C000086000B50E4880475DF804EB0D480E4905
:1001D0000A78027009480D490A680260106890E8C0
:1001E000F00F203080F309884EF0040E62B670479D
:1001F00022ED00E0DE00002004ED00E0E40000203D
:100200006D340008D7000020D8000020EC0000204A
:1002100040EA01039B0703D009E008C9121F08C088
:10022000042AFAD203E011F8013B00F8013B521E08
:10023000F9D27047D2B201E000F8012B491EFBD27F
:1002400070470022F6E710B513460A4604461946E1
:10025000FFF7F0FF204610BDF0B480EA0102D40F92
:100260004200B2EB410F02D20246084611464A0054
:1002700042D0C30DDDB2C1F3C752AD1A202D35DA1D
:10028000C1F3160141F4000204B15242C5F1200647
:1002900002FA06F12A411044B3EBD05F23D0C4B177
:1002A000012DA0EBC35009DCF0BC4FF0004202EA84
:1002B000C352DBB200F5000000F02ABB400000F1A1
:1002C000807000EBC350A0F1807040EAD17049000B
:1002D00009E0490841EAC071A0EBC35000F50000F5
:1002E000400800EBC350F0BC00F009BB61420122A2
:1002F00002EB4101001BF6E7F0BC704781F00041C2
:10030000AAE780F00040A7E780EA010210B502F0FA
:100310000043400022D04A001FD0010E01EB1261C1
:10032000C0F35600C2F3560240F4000042F400024B
:10033000A0FB022000047F39140400D0401C50EAC6
:10034000124001D44000491EC2B20C0604EBD0108A
:10035000401C4008802A02D003E0002010BD20F09D
:100360000100002900DA0020184310BD30B480EAF3
:10037000010202F0004530F0004221F0004013D0AD
:1003800090B1C30DD40DC2F31601C0F31600E41AE8
:1003900041F4000140F400027D34914201D3641C19
:1003A00000E04900002C02DA30BC002070474FF416
:1003B00000000023914201D3891A034340084FEA09
:1003C0004101F7D151B1914202D14FF0004105E016
:1003D00002D24FF0010101E06FF0010103EBC450C4
:1003E000284430BC00F08BBA2DE9FE4F804681EAEC
:1003F0000300C00F0C46009021F0004123F000459F
:10040000B8EB0200A94105D24046214690461C4661
:100410000B46024623F00040104347D0270DC7F398
:100420000A00C3F30A510290401A019040286BDA87
:10043000C3F3130040F4801B0098924620B10023C0
:10044000D2EB030A63EB0B0B01985946C0F1400253
:10045000504600F023FA06460D4650465946019A8A
:1004600000F03BFA10EB08006141002487EA1152CA
:1004700084EAE7731A4340D0009A62B3019A012AD2
:100480004FEA075215DC001B61EB02014FF00042FE
:1004900002EA0752CDE90042001C41F580113246C4
:1004A0002B4600F072FA03B0BDE8F08F40462146BB
:1004B000F9E7001B61EB0201001C41F580130018F5
:1004C0005B412018A2F5001747EB030140EAD57005
:1004D000B6196D4111E06D084FEA360645EAC07560
:1004E0004FEA0752001B61EB0201001C41F580112D
:1004F00049084FEA30000019514132462B4603B0FB
:10050000BDE8F04F00F032BA00980122400000230D
:10051000D0EB020263EBE073009821464FEAE074EF
:10052000B8EB000061EB0401E9E783F000435BE70F
:1005300081F0004158E72DE9FE4F81EA030404F001
:10054000004421F0004100944FF0000B23F00043E1
:1005500050EA01045ED052EA03045BD0C3F30A54AC
:10056000C1F30A552C44A4F2F3340194A0FB0254C5
:10057000C1F3130141F48011C3F3130343F4801357
:1005800001FB024400FB034E840A970A44EA8154AB
:1005900047EA8357A4FB076802958D0A05FB078588
:1005A0004FEA932C04FB0C542705029D4FEA065892
:1005B00047EA1637B5EB08056EEB070C870E920E6F
:1005C00047EA811742EA8312A7FB0201B6EB0B014F
:1005D00064EB00042B0D43EA0C335E1844EB1C5013
:1005E000DA465146E7FB0201C5F313044FEA0B3329
:1005F00043EA14534FEA0432019C43EA0603A4F190
:100600000C040294009CCDE900B400F0BEF903B0E4
:10061000BDE8F08F00200146F9E72DE9F04D81EAB1
:10062000030404F0004B21F0004514464FF0000A8B
:1006300023F0004150EA050220D054EA01021DD007
:10064000C5F30A570246C5F31303C1F31300C1F300
:100650000A5640F4801543F48013A7EB0608101BDC
:10066000D64608F2FD3873EB050002D308F1010805
:1006700001E092185B41B8F1000F03DA0020014657
:10068000BDE8F08D00204FF48011064684460EE050
:10069000171B73EB050705D3121B63EB050306431A
:1006A0004CEA010C49084FEA300092185B4150EACD
:1006B0000107EDD152EA030012D082EA040083EA76
:1006C0000501084305D0101BAB4106D201220023CF
:1006D00006E000224FF0004302E06FF001025310E9
:1006E0001AEB06004CEB085110EB0A0041EB0B0132
:1006F000BDE8F04D00F03AB9C10F80EAE07008445F
:10070000CA079623002100F003B996230022114660
:1007100000F0FEB8F0B4CA17CB0F50405140C618D5
:1007200041F100054FEAC372314628004FF09603AD
:1007300003D0B623F0BC00F0EBB830460021F9E757
:100740000EB5C10F80EAE0700844CA07002140F2EC
:1007500033438DE80E000A460B4600F016F903B04D
:1007600000BD0EB540F2334102910021CDE90011E8
:100770000A460B4600F009F903B000BD3EB5CA17A2
:10078000CB0F002450405140C0186141DA0740F2BD
:1007900033430094CDE901232246234600F0F5F8C7
:1007A00003B030BD70B5C1F30A5201F0004500241A
:1007B000C1F3130140F2FF3341F480119A4201DA90
:1007C000002070BD40F233439A42A2F2334203DC70
:1007D000524200F072F800E090402C43F1D04042C9
:1007E00070BDC1F30A5210B5C1F3130140F2FF33DB
:1007F00041F480119A4201DA002010BD40F23343E7
:100800009A42A2F2334203DC524200F056F810BD85
:10081000904010BD00F0004230F000400AD0C10D01
:1008200001F56071C0F3160042EA0151C2084007A9
:100830001143704700200146704701F0004330B477
:1008400021F0004150EA010206D00A0DA2F56072C3
:10085000C1F31301002A02DC30BC00207047440FB2
:1008600044EAC104C100E01830BC00EBC25000F003
:1008700046B80000002801DBC0F10040002901DB80
:10088000C1F1004181427047002801DBC0F1004006
:10089000002901DBC1F1004188427047202A04DBB6
:1008A000203A00FA02F1002070479140C2F1200383
:1008B00020FA03F3194390407047202A04DB203AC2
:1008C00021FA02F00021704721FA02F3D040C2F170
:1008D00020029140084319467047202A06DBCB17B7
:1008E000203A41FA02F043EAE07306E041FA02F3EB
:1008F000D040C2F1200291400843194670470029B8
:10090000A8BF7047401C490008BF20F00100704795
:1009100010B4B0FA80FC00FA0CF050EA010404BFF5
:1009200010BC704749B1CCF1200421FA04F411FA4B
:100930000CF118BF012121430843A3EB0C01CB1D8F
:100940004FEA00614FEA102042BF002010BC704700
:1009500000EBC35010440029A4BF10BC7047401CDA
:10096000490008BF20F0010010BC704710B5141EEC
:1009700073F1000408DA401C41F1000192185B4158
:100980001A4301D120F0010010BD2DE9F04D92462F
:100990009B4611B1B1FA81F202E0B0FA80F2203246
:1009A0009046FFF77BFF04460F4640EA0A0041EA03
:1009B0000B0153465A46084313D0114653EA01002F
:1009C00019D0C8F140025046FFF777FF05460E46A2
:1009D000504659464246FFF761FF084305D00120C3
:1009E00004E020463946BDE8F08D0020054346EA84
:1009F000E0762C4337430A986305E40AA0EB08002D
:100A00000022FD0A44EA47540A3002D5002001467C
:100A1000E9E7010510196941DDE908450019694157
:100A2000BDE8F04DA2E70000064C074D06E0E06887
:100A300040F0010394E8070098471034AC42F6D325
:100A4000FFF77AFB306B0008506B000870B521F09F
:100A5000004303430CD0C1F30A550024D5EB040531
:100A600064EB0403D617AD1AB34102DB0020014644
:100A700070BD201841EB025170BD000000B585B07B
:100A80000121480203F0E4F8002003F0B5F800204B
:100A900000908DF804008DF805004FF4602002905E
:100AA0000020039001208DF8100069460E4800F0E8
:100AB00041F801210C4800F019F8142000F075FCF1
:100AC000094800F0BBF800BF074800F028F80028EC
:100AD000FAD1054800F0C2F800BF034800F011F851
:100AE0000028FAD105B000BD0024014021B1826880
:100AF00042F00102826003E0826822F0010282601B
:100B00007047014600208A6802F004020AB1012001
:100B100000E0002070470146C86C80B27047014673
:100B200000208A6802F008020AB1012000E00020DB
:100B30007047000030B502460020002350680F4C7B
:100B400020400D790C6844EA0524204350609068E9
:100B50000B4C2040D1E902542C434D7944EA450422
:100B600020439060D06A20F470000C7C641EE4B2D4
:100B7000234340EA0350D06230BD0000FFFEF0FF87
:100B8000FDF7F1FFF0B504460D4600200021092DC8
:100B900011DDE068A5F10A0606EB4607072606FA0E
:100BA00007F18843A5F10A0606EB460603FA06F1AB
:100BB0000843E0600CE0206905EB4507072606FACC
:100BC00007F1884305EB450603FA06F10843206167
:100BD000072A0FDA606B561E06EB86071F2606FAF9
:100BE00007F18843561E06EB860605FA06F1084310
:100BF000606322E00D2A0FDA206BD61F06EB860712
:100C00001F2606FA07F18843D61F06EB860605FA6B
:100C100006F10843206310E0E06AA2F10D0606EB3E
:100C200086071F2606FA07F18843A2F10D0606EB98
:100C3000860605FA06F10843E062F0BD816841F0DE
:100C400008018160704721B1826842F4A00282608D
:100C500003E0826822F4A00282607047816841F05C
:100C6000040181607047000010B5044624B980215A
:100C7000174801F007F803E08021154801F004F857
:100C8000012000F092FB012000F08FFB012000F01A
:100C90008CFB40210E4800F0F7FF012000F085FB9F
:100CA000012000F082FB012000F07FFB012000F01A
:100CB0007CFB012000F079FB4021054800F0E2FFB9
:100CC000012000F072FB012000F06FFB10BD00005E
:100CD000000C014010B50C4840793B2805DA0A4861
:100CE0004079401C084948710DE0002006494871D0
:100CF000084600793B2804DA08460079401C087150
:100D000001E003F06DFA10BD0200002010B50523CC
:100D1000174A0021174802F09FF90623164A0021BE
:100D2000164802F099F90723154A0021154802F0E8
:100D300093F90823144A0021144802F08DF909237D
:100D4000134A0021134802F087F90A23124A0021AE
:100D5000124802F081F90B23114A0021114802F0D8
:100D60007BF90C23104A0021104802F075F910BDE0
:100D7000AC090020694E00087C110020054F0008D6
:100D80004C1900201D4F00081C210020594F00085D
:100D9000EC28002015500008BC3000208D500008C1
:100DA0008C3800209D5000085C400020AD500008A9
:100DB00000BFFEE71FB50121880302F049FF4FF491
:100DC000165000900020ADF80400ADF80600ADF814
:100DD0000800ADF80C000C20ADF80A00694609487F
:100DE00004F0DAFB0121074804F06DFB012240F218
:100DF0002551044804F0AAFB4FF40061024800F0BA
:100E000041FF1FBD00380140000801401FB501210E
:100E1000480402F0FDFE4FF4165000900020ADF89B
:100E20000400ADF80600ADF80800ADF80C000C2089
:100E3000ADF80A006946094804F0AEFB01210748F5
:100E400004F041FB012240F22551044804F07EFBEE
:100E50000221034800F016FF1FBD000000440040BF
:100E60000008014010B500201C49087032240BE036
:100E7000012002F0FDFA1A4800781A4909788842E0
:100E800000DB03E0601EC4B2002CF1DC00BF642470
:100E900008E0012002F0ECFA1048007800B103E00D
:100EA000601EC4B2002CF4DC00BF002404E00B4838
:100EB0000478042002F0DCFA084800788442F6D175
:100EC00006480078072807DD04480178064800F046
:100ED00097F808B9012010BD0020FCE7160000209B
:100EE0001500002014000020F00200207FB5064607
:100EF0000C4615460121880402F08AFE0096072D53
:100F000003D10020ADF804000FE06F2C05D04F2C6A
:100F100003D0652C01D0452C04D14FF48050ADF89E
:100F2000040002E00020ADF804000020ADF8060047
:100F30006F2C01D04F2C04D14FF4C060ADF80800E5
:100F40000BE0652C01D0452C04D14FF48060ADF846
:100F5000080002E00020ADF808000020ADF80C0009
:100F60000C20ADF80A006946084804F015FB012181
:100F7000064804F0A8FA012240F22551034804F083
:100F8000E5FA0421024800F07DFE7FBD00480040E4
:100F9000000C01401FB50121C80402F039FE4FF4D6
:100FA000E13000900020ADF80400ADF80600ADF887
:100FB0000800ADF80C000C20ADF80A00694607489F
:100FC00004F0EAFA0121054804F07DFA012240F21A
:100FD0002551024804F0BAFA1FBD0000004C004041
:100FE00070B505460C46A01E84B22146284600F086
:100FF00007F806462819314601F02AF870BD0000AE
:10100000F0B502460B46FF24FF25164609E016F808
:10101000010B80EA04010748405C80EA05040648A9
:10102000455C181EA3F10107BBB2F0D145EA0420CC
:10103000F0BD000008670008086800082DE9F05FAF
:101040000D494889FFF78DFB04460D460A4948893A
:10105000FFF787FB8046094A094BFFF76CFA064603
:1010600022462B46FFF767FA8246FFF7E6FB054963
:101070000860BDE8F09F000000010020534A0856B8
:10108000D5A5FD3E3C0000202DE9F04F8BB048482F
:10109000407900284FD046494879FFF762FBCDE9F7
:1010A000040143490889FFF75CFB8046414A424BF3
:1010B000FFF741FACDE9000105F0F4FA04460D46C8
:1010C0003B4949894800FFF73BFB064622462B4631
:1010D000FFF731FACDE90201DDE90423FFF72BFA2E
:1010E000CDE9080132498889FFF70FFB07463049EF
:1010F0008889FFF70AFB80462D49C889FFF705FB61
:1011000081462E49FFF700F906464146FFF7FCF8F5
:1011100005463946FFF7F8F80446FFF77BFBCDE9B3
:101120000601DDE90823FFF778FA8246FFF785FB21
:101130002349086025E01E4909894800FFF7DCFAC9
:1011400007461B498889FFF7E0FA804618498889D5
:10115000FFF7DBFA81461649C889FFF7D6FA8246BF
:101160001649FFF7D1F806464946FFF7CDF8054680
:101170004146FFF7C9F804463946FFF7F7F810492A
:1011800008600B49488AFFF7C0FA04460D49FFF78B
:10119000BBF80D4908600649C88AFFF7B6FA04464D
:1011A0000A49FFF7B1F80A4908600BB0BDE8F08FB3
:1011B00000010020477CD3625AE0263FFFEB2F2D31
:1011C0003400002017B7D13898000020CDCCCC3D9A
:1011D0009C0000202DE9F0410C49888AFFF795FA20
:1011E00006460A49088AFFF790FA07460849FFF7BA
:1011F0008BF805463146FFF787F804460549FFF7A7
:10120000B5F805490860BDE8F08100000001002044
:1012100017B7D13800C8AF484400002010B5FFF719
:1012200033FFFFF70BFFFFF7D5FF10BD08B50146F1
:101230000B466A469878D070D878907018785070BD
:1012400058781070009808BD01460A465078137807
:1012500000EB032000B2704710B5464800784649BD
:101260000978884232D043480078434908704148A1
:101270004078424908703F4880784149087004F03E
:10128000BDFD04F04DFC04F0A1FB00213D4A1162BC
:1012900051629161D161116151613B4A11625162A8
:1012A00000209061D061116151613848008840F0A0
:1012B0001000364908800846008840F02000088069
:1012C0000846008840F04000088052E029484078F5
:1012D0002A490978884228D026484078274908704A
:1012E000244880782649087004F01AFC04F06EFB4C
:1012F0000021244A9161D161002010615061224A8D
:101300009061D061106150612048008840F0100069
:101310001E4908800846008840F0200008800846E2
:10132000008840F04000088023E01248807814498B
:10133000097888421DD00F4880781149087004F060
:1013400045FB00210F4A1161516100200E4A1061D6
:1013500050610E48008840F010000C490880084693
:10136000008840F0200008800846008840F04000D7
:10137000088010BD02000020560000205700002009
:10138000580000205801002088010020080000209B
:10139000704700B5024605E04FF47A7000F005F89A
:1013A000501E82B2002AF7DC00BD14E000BF00BF6F
:1013B00000BF00BF00BF00BF00BF00BF00BF00BF35
:1013C00000BF00BF00BF00BF00BF00BF00BF00BF25
:1013D00000BF411E88B20028E8DC7047002400BF2F
:1013E00000F054FC83E0052002F042F800F09CF885
:1013F00000F09AFC601C84B2642C78DD00243C4828
:10140000008801B24FF4005000F026F939480088F6
:1014100001B241F2020000F01FF93748016841F2C1
:10142000040000F0E5F83548016841F2080000F0DA
:10143000DFF83348016841F2120000F0D9F82F4874
:10144000006800F023FD2F48008801B24FF4885057
:1014500000F002F92C48008801B241F2021000F0BD
:10146000FBF82A48008801B241F2041000F0F4F8B9
:101470002748058805EBD5704010801E01B241F267
:10148000081000F0E9F82348008801B241F2061084
:1014900000F0E2F81B48008801B24FF4905000F0D1
:1014A000DBF81948008801B241F2022000F0D4F8BC
:1014B0001948008801B241F2042000F0CDF8174825
:1014C000008801B241F2062000F0C6F814480088F6
:1014D00001B241F2082000F0BFF81248017841F251
:1014E000102000F0B9F800F0EFF800F0CFFB7AE739
:1014F00064000020620000207000002068000020CE
:101500006C0000207400002076000020780000208D
:10151000800000207A00002082000020840000204B
:10152000860000200001002010B51B48007880B321
:101530001A48008818490978884204D0164800786B
:101540001649088025E01548008813490978884223
:101550001FD112480088072816DD114800785A2844
:1015600012D10F484078A5280ED10D488078062862
:101570000AD10B48C01C02F059FF0020074908801F
:1015800005490870012010BD002004490880024967
:1015900008700020F7E700001C00002094000020E5
:1015A0001C05002070B506460C465A2000F010F8C5
:1015B000A52000F00DF8204600F00AF8002504E010
:1015C000705D00F005F8681CC5B2A542F8DB70BD7F
:1015D00010B5044600BF8021044803F080FF0028B6
:1015E000F9D02146014804F048F810BD004C0040F5
:1015F00070B504460D460020154908708221144834
:1016000002780078401C124B187012488154211245
:10161000184602780078401C18700E48815418460D
:1016200002780078401C18700A48845401461A4613
:1016300012788818294600F085FA05480078001DC0
:1016400003490870084601780248FFF7ABFF70BDF8
:10165000900000206040002070B504460D46002038
:10166000174908708221164802780078401C144BF4
:101670001870144881542112184602780078401CD2
:10168000187010488154184602780078401C187071
:101690000C488454C5F30721184602780078401C92
:1016A000187008488154184602780078401C187059
:1016B00004488554184601780248FFF773FF70BD4F
:1016C000900000206040002010B5002033490870D1
:1016D0008221324802780078401C304B1870304824
:1016E00081540022184601780078401C18702C485C
:1016F00042541021184602780078401C187028487F
:10170000815428480178184602780078401C1870E7
:101710002348815423484278184601780078401CB9
:1017200018701F4842541F48817818460278007884
:10173000401C18701A48815400211846027800781D
:10174000401C1870164881541648C1781846027813
:101750000078401C187012488154124801791846CC
:1017600002780078401C18700D4881540D48427969
:10177000184601780078401C18700948425400212E
:10178000184602780078401C1870054881541846A5
:1017900001780348FFF706FF10BD0000900000200D
:1017A00060400020020000201CB50224B448B0F9BB
:1017B0000000962806DAB348007818B90120B1492C
:1017C00008700124AE48B0F90000962806DDAD4847
:1017D000007818B10020AB4908700024022C1FD0FB
:1017E000A948016800918088ADF804008DF8064092
:1017F000A6490979C1EBC10141F27072881807222C
:10180000694604F025F9A1480079401C00F00F005A
:101810009E4908719E48008840F400709C490880E9
:1018200002249C48007800F00400042806D19A485D
:10183000007818B90120984908700124954800786B
:1018400000F0040030B99448007818B100209249A3
:1018500008700024022C1ED08B48016800918088FB
:10186000ADF804008DF8064088494979C1EBC10103
:1018700001F5BF500722694604F0EAF88348407931
:10188000401C00F00F00814948718148008840F4F5
:1018900000707F4908800224002180480068FEF71C
:1018A000E9FF06D27E48007818B901207C4908700B
:1018B0000124002179480068FEF7E6FF06D2784847
:1018C000007818B10020764908700024022C1FD03F
:1018D0006D48016800918088ADF804008DF80640DD
:1018E0006A498979C1EBC10141F650028818072283
:1018F000694604F0ADF865488079401C00F00F009F
:10190000624988716248008840F40070604908802C
:1019100002246448816B64480068FEF7B5FF06D274
:101920006248007818B901206049087001245D48B8
:10193000816B5D480068FEF79DFF06D25B4800782A
:1019400018B10020594908700024022C1ED04E48BE
:10195000016800918088ADF804008DF806404B497D
:10196000C979C1EBC10101F5C6500722694604F0EF
:101970006FF84648C079401C00F00F004349C87119
:101980004348008840F400704149088002244548DB
:10199000C16B45480068FEF76DFF06D244480078E9
:1019A00018B901204249087001243E48C16B3E48E5
:1019B0000068FEF769FF06D23D48007818B10020A4
:1019C0003B4908700024022C1FD02F480168009169
:1019D0008088ADF804008DF806402C49097AC1EBE7
:1019E000C10141F6301288180722694604F030F828
:1019F0002648007A401C00F00F0024490872244851
:101A0000008840F4007022490880022421480078B0
:101A100000F0200030B12748007818B9012025498E
:101A2000087001241B48007800F0200030B92148DC
:101A3000007818B100201F4908700024022C1ED025
:101A40001148016800918088ADF804008DF80640C7
:101A50000E49497AC1EBC10101F5CD500722694613
:101A600003F0F6FF0948407A401C00F00F000749D8
:101A700048720748008840F40070054908801CBD82
:101A80000A000020A400002002000020B80100206D
:101A9000080000201E000020A500002038000020C3
:101AA000A60000200001002040000020A700002028
:101AB000A8000020A900002070B50024082515E02A
:101AC0004FF400510B4800F0DDF86006040E4FF4AF
:101AD0008041084800F0CDF808B144F001044FF40B
:101AE0000051044800F0D0F8681EC5B2002DE7DCB4
:101AF000204670BD000C014070B5044608251BE06F
:101B000004F0800028B14FF400410D4800F0BCF80B
:101B100004E04FF400410A4800F0B4F84FF40051DB
:101B2000074800F0AFF86006040E4FF40051044877
:101B300000F0AAF8681EC5B2002DE1DC70BD0000FF
:101B4000000C014003B5024601A9CB7813708B78D5
:101B500053704B7893700B78D3700CBD2DE9F04126
:101B6000024600250026002000230024002791F8CB
:101B700003C00CF00F0591F803C00CF0100CBCF181
:101B8000000F03D091F802C04CEA050591F800C09F
:101B9000BCF1000F31D0146800202BE04FF0010C95
:101BA0000CFA00F3B1F800C00CEA03069E4220D103
:101BB00083004FF00F0C0CFA03F7BC4305FA03FC4B
:101BC0004CEA040491F803C0BCF1280F06D14FF091
:101BD000010C0CFA00FCC2F814C00AE091F803C032
:101BE000BCF1480F05D14FF0010C0CFA00FCC2F813
:101BF00010C0401C0828D1D31460B1F800C0BCF15B
:101C0000FF0F34DD546800202EE000F1080C4FF087
:101C1000010808FA0CF3B1F800C00CEA03069E4272
:101C200021D183004FF00F0C0CFA03F7BC4305FAE7
:101C300003FC4CEA040491F803C0BCF1280F05D161
:101C400000F1080C08FA0CF8C2F8148091F803C0EF
:101C5000BCF1480F07D100F1080C4FF0010808FA59
:101C60000CF8C2F81080401C0828CED35460BDE8A0
:101C7000F0810246002093680B400BB1012000E088
:101C800000207047416170470161704710B5002026
:101C9000224908700121214802780078401C1F4B1E
:101CA00018701F4881540321184602780078401CA0
:101CB00018701B48815401461A4612788818002172
:101CC00000F0C6F915480078801C144908701449C2
:101CD000124A127888184E2100F0BAF90F4800789D
:101CE000801C0E490870084601780D48FFF788F9F6
:101CF00004460B49094A12788818214600F0A8F9D1
:101D000006480078801C0549087003F0DBF9FFF7EE
:101D1000A9F810B1034803F0D3FD10BD1400002052
:101D20008C020020F302002070B500250026354803
:101D300000783549097888425DD13248007800281A
:101D400059D03248007832490978884224D12E4847
:101D500001782E48FFF754F9F0B92C48801CFFF7A2
:101D600073FA84B229484078032804D0042803D0A9
:101D700006280ED105E000BF2248007803F0E4FCFD
:101D800008E0204802782149091D204603F044FD5F
:101D900000E000BF00BF27E01C48007820BB1B48C4
:101DA0004078032803D01948407804281CD11748EC
:101DB000801CFFF749FA652816D11448001DFFF76B
:101DC00043FA012810D1104801781048FFF718F99C
:101DD00050B9104C0220E11E88702146652000F0A9
:101DE0002FFA02F079FA00BF002007490870054970
:101DF0000870012070BD0448007802490870002076
:101E0000F8E70000AC0000201A000020B804002011
:101E100000010020BB03002010B5022301220A218B
:101E20000A48FEF7AFFE01210848FEF70CFF072025
:101E3000FFF7BBFA0548FEF76EFEC0EB00107921F4
:101E400090FBF1F0C01C00B210BD00000024014066
:101E50000C48007800F0080090B10A481838007863
:101E60000007000D0749091F097840EAD10005491C
:101E7000097801F00701012202EB41110843704784
:101E80000020FCE7E8FF0FE000BFFEE72DE9F84F78
:101E9000834669495846FEF7F7FC01D2664800E0E0
:101EA0005846834600215846FEF7E4FC01D2002044
:101EB00000E05846834661495846FEF725FA0090EF
:101EC000FEF7A8FC804600225D4BFEF7A6FB064607
:101ED00000225C4BFEF72CFB0446FEF782FC00F070
:101EE000FF0A55495846FEF7C5FC01D14FF0050AD7
:101EF0000020554908708221534802780078401C20
:101F0000514B18705148815454211846027800787A
:101F1000401C18704D4881544022184601780078C2
:101F2000401C187049484254002118460278007835
:101F3000401C1870454881540421184602780078E6
:101F4000401C1870414881540022184601780078DE
:101F5000401C18703D484254012218460178007810
:101F6000401C187039484254002118460278007805
:101F7000401C187035488154352118460278007885
:101F8000401C1870314881540021184602780078AE
:101F9000401C18702D488154602218460178007842
:101FA000401C1870294842540021184602780078D5
:101FB000401C18702548815480211846027800780A
:101FC000401C18702148815400221846017800787E
:101FD000401C18701D484254184601780078401C77
:101FE0001A461070194800F801A0F721104602782F
:101FF0000078401C1870154881549E2118460278BC
:102000000078401C187011488154FF21184602784E
:102010000078401C18700D48815400221846017841
:102020000078401C18700948425418460178074847
:10203000FFF7B8FABDE8F88F0000C8420000504131
:102040000000244000E06E4090000020604000202E
:1020500002460B12137051707047000008B5012141
:10206000042001F0F5FD0121082001F0F1FD01211E
:10207000102001F0EDFD0121202001F0E9FD40F6E6
:10208000B210ADF8000010208DF8030001208DF88B
:10209000020069464D48FFF761FD4FF400614B486F
:1020A000FFF7F0FD02214948FFF7ECFD4FF4807186
:1020B0004648FFF7E9FD10214448FFF7E3FD4FF4E0
:1020C0000170ADF8000001208DF8020018208DF895
:1020D000030069463D48FFF741FD41F24940ADF834
:1020E000000004208DF8030069463848FFF736FDEC
:1020F0004BF28E10ADF8000010208DF80300012087
:102100008DF8020069463248FFF728FD40F2014091
:10211000ADF8000001208DF8020018208DF80300B2
:1021200069462B48FFF71AFD4FF49040ADF80000C8
:1021300004208DF8030069462548FFF70FFDC020F5
:10214000ADF8000001208DF8020014208DF8030086
:1021500069461F48FFF702FD0120ADF8000000208E
:102160008DF8030069461B48FFF7F8FC2C20ADF8FA
:10217000000001208DF8020010208DF80300694650
:102180001448FFF7EBFC4FF43C60ADF8000004206E
:102190008DF8030069460F48FFF7E0FC4FF4A050AC
:1021A000ADF8000001208DF8020018208DF8030022
:1021B00069460848FFF7D2FC0420ADF800008DF80E
:1021C000030069460448FFF7C9FC08BD0008014048
:1021D000000C014000100140001401404CF6CC40BE
:1021E0000149086070470000003000404AF6AA200C
:1021F00001490860704700000030004045F255502A
:1022000000F018F8002000F009F8642000F00CF845
:10221000FFF7ECFFFFF7E2FF00BFFEE70149486070
:10222000704700000030004001498860704700009E
:102230000030004001490860704700000030004055
:1022400003B58BB00C9809900B9865287ED068DC9C
:1022500065287CD2DFE810F0D800E400EA00FA003C
:1022600006011B0136013C013D01430144014A01C5
:102270004B01500155015B01600176017B007B0041
:102280007B007B007C0194019501AD01AE01C7018B
:10229000C801E201E301FD01FE0118021902330247
:1022A000340239023E0257025802720273028D0252
:1022B0008E02A802A902C302C402CC02FE020603D7
:1022C0000E0316031E037B0026032E0336033E0374
:1022D00046037B004B0353037B005B0363036403F0
:1022E0006C037B007B007B007B007B007B007B0022
:1022F0007B007B007B007B007B007B007B007B0006
:102300007B007B007B007B006D03720377038003FF
:102310008903920397039C03A103B603B703BC038D
:10232000CF03DF2875D046DCCC2873D02CDCAD2859
:1023300071D016DC98286FD00ADC66286DD067282B
:102340006CD096286BD0972801D18FE358E388E0B2
:10235000992874D0AA2873D0AB2872D0AC28F3D1B6
:10236000AEE3C8286ED008DCAE286CD0AF286BD0A6
:10237000B0286AD0B128E7D1CFE3C9286FD0CA28E6
:102380006ED0CB28E0D1E9E3CD38122869D2DFE85E
:1023900010F0EE03EF03F703FF0307040804100433
:1023A00011041904210429042A04330434043C04CC
:1023B00044044C044D04E0382428E7D2DFE810F050
:1023C0004A0452045A04620463046B046C047404E7
:1023D0007C04840485048D048E0496049E04A60463
:1023E000A704AF04B004B804C004C804C904D104ED
:1023F000D204DA04E204EA04EB04F304F404FC0477
:1024000004050C050D05150500210998FFF720FEB0
:1024100027E2F0E3A3E35CE330E3F9E20DE31DE33D
:10242000F74801780998FFF713FEF1E7F5480088AF
:1024300080B2014608900998FFF70AFEE8E725E315
:102440002CE334E372E34DE355E35DE3EE480088AB
:1024500080B2014608900998FFF7FAFDD8E76DE3CE
:1024600074E3F5E3E9480068FEF7D4F90022E84B8D
:10247000CDE90401FEF75FF8CDE90601FEF7B1F9F9
:1024800080B2014608900998FFF7E2FDC0E7E148F5
:102490000068FEF7BFF90022DF4BCDE90201FEF72D
:1024A0004AF80022DD4BCDE90401FDF79DFFCDE99F
:1024B0000601FEF777F980B2014608900998FFF708
:1024C000C7FDA5E7D64801680998FFF73BFB9FE7E2
:1024D0009EE7D44801680998FFF734FB98E797E72F
:1024E000D14801680998FFF72DFB91E790E700219B
:1024F0000998FFF7ADFD8BE700210998FFF7A8FDCC
:1025000086E7CA4801880998FFF7A2FD80E769219C
:102510000998FFF79DFD7BE7C548B0F90000FEF77D
:102520000FF90022BC4BCDE90401FEF704F8CDE918
:102530000601FEF756F980B2014608900998FFF7A8
:1025400087FD65E7BB4801880998FFF781FD5FE7D4
:10255000B94800680290FEF7CFF80390FEF75AF9E9
:102560000022B64BCDE90401FEF757F8CDE906018C
:10257000FEF763F9014608900998FFF7E3FA47E789
:1025800046E7AD4840680290FEF7B6F80390FEF7C4
:1025900041F90022A94BCDE90401FEF73EF8CDE94F
:1025A0000601FEF74AF9014608900998FFF7CAFAB2
:1025B0002EE72DE7A24903C9CDE90001FEF7AAF8ED
:1025C0000390FEF727F900229E4BCDE90401FEF7A8
:1025D00024F8CDE90601FEF730F901460890099884
:1025E000FFF7B0FA14E713E79549D1E90201CDE905
:1025F0000001FEF78FF80390FEF70CF90022914BD3
:10260000CDE90401FEF709F8CDE90601FEF715F959
:10261000014608900998FFF795FAECE3EBE3884947
:10262000D1E90401CDE90001FEF774F80390FEF74B
:10263000F1F80022834BCDE90401FDF7EEFFCDE96F
:102640000601FEF7FAF8014608900998FFF77AFAB2
:10265000D1E3D0E37A49D1E90601CDE90001FEF7E3
:1026600059F80390FEF7D6F80022764BCDE9040125
:10267000FDF7D3FFCDE90601FEF7DFF8014608902C
:102680000998FFF75FFAB6E3B5E36D49D1E90801B0
:10269000CDE90001FEF73EF80390FEF7BBF80022FB
:1026A000684BCDE90401FDF7B8FFCDE90601FEF75F
:1026B000C4F8014608900998FFF744FA9BE39AE3AF
:1026C00000210998FFF7C4FC95E300210998FFF762
:1026D000BFFC90E35C4903C9CDE90001FEF71AF89D
:1026E0000390FEF797F80022584BCDE90401FDF75F
:1026F00094FFCDE90601FEF7A0F80146089009987D
:10270000FFF720FA77E376E34F49D1E90201CDE9FB
:102710000001FDF7FFFF0390FEF77CF800224B4B12
:10272000CDE90401FDF779FFCDE90601FEF785F853
:10273000014608900998FFF705FA5CE35BE342491C
:10274000D1E90401CDE90001FDF7E4FF0390FEF7B4
:1027500061F800223D4BCDE90401FDF75EFFCDE9B4
:102760000601FEF76AF8014608900998FFF7EAF9B2
:1027700041E340E33449D1E90601CDE90001FDF729
:10278000C9FF0390FEF746F80022304BCDE9040163
:10279000FDF743FFCDE90601FEF74FF8014608902B
:1027A0000998FFF7CFF926E325E32749D1E9080186
:1027B000CDE90001FDF7AEFF0390FEF72BF80022F4
:1027C000224BCDE90401FDF728FFCDE90601FEF714
:1027D00034F8014608900998FFF7B4F90BE30AE3CF
:1027E0001B48C088014608900998FFF731FC02E3B6
:1027F00017480079014608900998FFF729FCFAE28A
:102800002C00002030000020320000202800002092
:102810000000594024000020000024400000E03F58
:102820003800002040000020480000200E0000205A
:102830000A0000201E000020480100200020AC40BB
:102840005801002080842E418801002040774B41B0
:1028500000010020F9484079014608900998FFF7E7
:10286000F7FBC8E2F5480089014608900998FFF790
:10287000EFFBC0E2F1484089014608900998FFF754
:10288000E7FBB8E2ED488089014608900998FFF718
:10289000DFFBB0E2E948C089014608900998FFF7DC
:1028A000D7FBA8E2E548C08A014608900998FFF7DF
:1028B000CFFBA0E2E148408A014608900998FFF763
:1028C000C7FB98E2DD48008A014608900998FFF7A7
:1028D000BFFB90E2D948808A014608900998FFF72B
:1028E000B7FB88E200210998FFF7B2FB83E2D348E7
:1028F0008078014608900998FFF7AAFB7BE2CF4851
:10290000C078014608900998FFF7A2FB73E2CB4814
:10291000806B014608900998FFF714F96BE26AE2B0
:10292000C648C06B014608900998FFF70BF962E2B0
:1029300061E200210998FFF78BFB5CE20021099816
:10294000FFF786FB57E2BE48017809980170BC4842
:102950004178099841704EE2B94881780998017030
:10296000B748C1780998417045E2B548017909989E
:102970000170B3484179099841703CE200210998FF
:10298000FFF766FB37E200210998FFF761FB32E2AF
:1029900000210998FFF75CFB2DE2A848406B4FF639
:1029A000FF7101EA2040014608900998FFF750FBAB
:1029B000A248808E80B2014608900998801CFFF7DB
:1029C00047FB18E217E200210998FFF741FB12E2EA
:1029D0009A48B0F928000A2190FBF1F0C1B2099899
:1029E00001709648B0F92A000A2190FBF1F0C1B2BB
:1029F00009984170FFE100210998FFF729FBFAE1EE
:102A00008E480078014608900998FFF721FBF2E113
:102A10008A484078032190FBF1F101208840C0EB07
:102A2000001000EB80004FF6FF7101EA0010014634
:102A300008900998FFF70CFBDDE1824802F051F99C
:102A4000814909880D3148437F490880084600883C
:102A5000014608900998FFF7FBFACCE17748008E11
:102A6000014608900998FFF7F3FAC4E17348408ED5
:102A7000014608900998FFF7EBFABCE16F48808D9A
:102A8000014608900998FFF7E3FAB4E16B48C08D5E
:102A9000014608900998FFF7DBFAACE16748008B24
:102AA00080B2014608900998FFF7D2FAA3E1634883
:102AB000408B80B2014608900998FFF7C9FA9AE165
:102AC0005E48808B80B2014608900998FFF7C0FAF3
:102AD00091E15A48C08B80B2014608900998FFF7EF
:102AE000B7FA88E15548008C80B2014608900998F1
:102AF000FFF7AEFA7FE15148408C80B20146089062
:102B00000998FFF7A5FA76E14C48808C80B201461F
:102B100008900998FFF79CFA6DE14848C08C80B294
:102B2000014608900998FFF793FA64E14748007955
:102B3000014608900998FFF78BFA5CE14348008949
:102B4000014608900998FFF783FA54E13F4800696D
:102B5000014608900998FEF7F5FF4CE14BE13B4830
:102B6000006A014608900998FEF7ECFF43E142E154
:102B700036484079014608900998FFF769FA3AE12A
:102B800032484089014608900998FFF761FA32E11E
:102B90002E484069014608900998FEF7D3FF2AE1C4
:102BA00029E12A48406A014608900998FEF7CAFFC1
:102BB00021E120E125488079014608900998FFF736
:102BC00047FA18E121488089014608900998FFF7E3
:102BD0003FFA10E11D488069014608900998FEF708
:102BE000B1FF08E107E11948806A01460890099899
:102BF000FEF7A8FFFFE02CE0FDE01448C079014695
:102C000008900998FFF724FAF5E01048C0890146BA
:102C100008900998FFF71CFAEDE00C48C0690146DE
:102C200008900998FEF78EFFE5E0E4E00748C06AE7
:102C3000014608900998FEF785FFDCE000010020BE
:102C4000020000200008004052000020E40500209F
:102C5000CCE0D0E069480078014608900998FFF779
:102C6000F7F9C8E065484088014608900998FFF7E1
:102C7000EFF9C0E06148006B014608900998FEF743
:102C800061FFB8E0B7E05D48406B014608900998E5
:102C9000FEF758FFAFE0AEE05948007901460890D2
:102CA0000998FFF7D5F9A6E0554800890146089034
:102CB0000998FFF7CDF99EE0514800690146089058
:102CC0000998FEF73FFF96E095E04D48006A0146FF
:102CD00008900998FEF736FF8DE08CE0484840796F
:102CE000014608900998FFF7B3F984E04448408909
:102CF000014608900998FFF7ABF97CE0404840692D
:102D0000014608900998FEF71DFF74E073E03C4807
:102D1000406A014608900998FEF714FF6BE06AE0EC
:102D200037488079014608900998FFF791F962E0E9
:102D300033488089014608900998FFF789F95AE0DD
:102D40002F488069014608900998FEF7FBFE52E083
:102D500051E02B48806A014608900998FEF7F2FE80
:102D600049E048E02648C079014608900998FFF7F5
:102D70006FF940E02248C089014608900998FFF7A2
:102D800067F938E01E48C069014608900998FEF7C7
:102D9000D9FE30E02FE01A48C06A01460890099831
:102DA000FEF7D0FE27E026E015480078014608909F
:102DB0000998FFF74DF91EE0114840880146089038
:102DC0000998FFF745F916E00D48006B0146089099
:102DD0000998FEF7B7FE0EE00DE00948406B01468A
:102DE00008900998FEF7AEFE05E004E0002109987E
:102DF000FFF72EF900BF00BF0DB000BDE4050020B5
:102E00001C06002000BFFEE7704708B54FF4C06005
:102E100000F084F825208DF8000000208DF80100D6
:102E200002208DF8020001208DF80300684600F0B2
:102E30003DF826208DF8000000208DF801000320C9
:102E40008DF8020001208DF80300684600F02EF88E
:102E500027208DF8000000208DF8010004208DF857
:102E6000020001208DF80300684600F01FF83420AE
:102E70008DF8000000208DF8010005208DF802007B
:102E800001208DF80300684600F010F81E208DF830
:102E9000000000208DF8010006208DF802000120BE
:102EA0008DF80300684600F001F808BD70B50021F8
:102EB00000230F22C47804B3154C246804F4E064A2
:102EC000C4F5E064210AC1F10403CA40447804FA5D
:102ED00003F184781440214309010E4C0678A15572
:102EE000047804F01F050124AC4005786D11AD0095
:102EF00005F1E025C5F8004109E0047804F01F055C
:102F00000124AC40044D0678761145F8264070BD8A
:102F10000CED00E000E400E080E100E00249014344
:102F2000024A1160704700000000FA050CED00E055
:102F300010B500F00FF800F045FB00F06DFB00F05D
:102F40008FFB00F03EFB00F0BFFB00F0E5FB00F064
:102F500002F810BD7047704706480078012808D174
:102F600005480078FF2804D203480078401C024935
:102F700008707047DE000020D500002010B5002446
:102F80001A480078012830D1FDF7F0F804461848B7
:102F90000078002804DD16480078401E14490870A7
:102FA00013480078F0B913480078D8B900F020FC35
:102FB0001148007811490978884213D010480E4909
:102FC000097850F821000F49086008460068806AB7
:102FD000401C096888620C480068401C0A49086067
:102FE000FDF7E0F82046FDF7C5F810BDDE00002033
:102FF000D5000020D6000020D8000020D7000020F7
:10300000C4440020EC000020C400002010B50B4890
:10301000007890B900F0ECFB094800780949087085
:1030200009480749097850F821000849086008460E
:10303000006807490860FDF7A0F810BDDE00002019
:10304000D8000020D7000020C4440020EC0000205D
:10305000E4000020704700002DE9FE4F06460F46B1
:1030600090461C464FF000091F2C02DD2A20BDE8C7
:10307000FE8FFDF77BF881461F480078002804DDAD
:103080004846FDF777F83C20F1E71C4850F824004B
:1030900060BB0120194941F824004846FDF76AF851
:1030A000002342463946304600F036F98246002079
:1030B000009001900346024651460290204600F0DF
:1030C000C5FB054635B90E48007801280CD100F043
:1030D00055FB09E0FDF74AF881460020074941F811
:1030E00024004846FDF746F82846C0E74846FDF765
:1030F00041F82820BBE70000D5000020C444002090
:10310000DE0000202DE9F04F85B081468A469346C7
:103110001C46DDE90F78129D002003901F2C03DD73
:103120002A2005B0BDE8F08FFDF720F80390224873
:103130000078002804DD0398FDF71CF83C20F0E738
:103140001E4850F8240088BB01201C4941F8240087
:103150000398FDF70FF82A464146384600F074FC04
:103160002B465A465146484600F0D6F8049011982E
:10317000CDE9008002953A4620460E9B049900F066
:1031800065FB064636B90E48007801280CD100F0E0
:10319000F5FA09E0FCF7EAFF03900020074941F83F
:1031A00024000398FCF7E6FF3046BAE7FFE70398F0
:1031B000FCF7E0FF2820B4E7D5000020C44400203D
:1031C000DE000020704770472DE9F04705460F46A6
:1031D00014464FF000090CB9BDE8F0871F2D04DD3F
:1031E000FF2D02D02A202070F6E717B90C2020709E
:1031F000F2E71D480078002802DD12202070EBE77E
:10320000FCF7B4FF8146FF2D03D11848006890F801
:103210002050174850F825602EB94846FCF7AAFF01
:1032200043202070D8E7012E05D14846FCF7A2FFC5
:1032300043202070D0E7384600F0FEFA8046B8F10F
:103240000F0F05DD4846FCF795FF41202070C3E7CE
:10325000394606F13C0000F0E1FA4846FCF78AFFE7
:103260000020207000BFB7E7D5000020E400002058
:10327000C4440020704700002DE9F04706460C4684
:103280004FF0000A1F2E04DDFF2E02D02A20BDE8D9
:10329000F0870CB90920FAE7002020606060FCF795
:1032A00065FF8246FF2E03D11948006890F8206020
:1032B000184850F8265025B95046FCF75BFF4320CC
:1032C000E5E7012D04D15046FCF754FF4320DEE72B
:1032D000287C00F0010020B95046FCF74BFF452048
:1032E000D5E70027D5F80C90D5F808805046FCF7B4
:1032F00041FF00E07F1C58F8041B0029FAD0B800F9
:103300002060A9EB0700800060600020BFE700009C
:10331000E4000020C444002070B5044610464FF07D
:1033200080750560051F28462C606FF00106051F9B
:1033300028462E604FF01236051F28462E604FF0AB
:103340000336051F28462E604FF00236051F28461B
:103350002E607610051F28462E60051F284629601E
:103360004FF01136051F28462E604FF01036051F0E
:1033700028462E604FF00936051F28462E604FF074
:103380000836051F28462E604FF00736051F2846D1
:103390002E604FF00636051F28462E604FF005368A
:1033A000051F28462E604FF00436051F28462E6064
:1033B00070BD00002DE9F04105464FF000081F2DBB
:1033C00002D14720BDE8F0811F2D03DBFF2D01D086
:1033D0002A20F7E7FCF7CAFE8046FF2D05D11F48DB
:1033E000006890F82050012608E01C48006890F81A
:1033F0002000A84201D1012600E00026184850F81C
:10340000254024B94046FCF7B5FE4820DAE7012CF8
:1034100004D14046FCF7AEFE4320D3E794F8227077
:103420001048C05D94F8231088430E49C8550846DB
:10343000C05D30B994F824100B48007888430A49DD
:103440000870A07F40F00800A0774046FCF792FE8D
:10345000012E01D100F092F90020B3E7E400002032
:10346000C4440020DA000020D9000020704700008A
:1034700070B50546002616480078002800DD70BDAE
:10348000002D23DDFCF772FE06461248006890F816
:1034900022401148005D0F49096891F823108843C4
:1034A0000D4908550846005D40B90A48006890F883
:1034B00024100A48007888430849087005480068C5
:1034C00085833046FCF756FE00F058F900BFD6E77A
:1034D000D5000020E4000020DA000020D900002000
:1034E00070B5002600F06CF8FCF740FE06462E484A
:1034F0000068401C2C4908603046FCF73BFE2B4816
:10350000007801284ED12A48007820B1012804D043
:10351000022809D103E001250BE0002509E001257F
:1035200001202349087004E001250020204908708B
:1035300000BF00BF05B970BD1E4804682EE0FCF74F
:1035400015FE0646A08B28B3A08B401E80B2A08338
:1035500000BBA07F00F0370030B1A07F20F0370023
:10356000A0770120E07701E00020E077A07F00F065
:10357000080078B92234A0780F49097808430E4929
:10358000087020780D49085C6178084314F8221906
:103590000A4A505464693046FCF7ECFD94F8200068
:1035A0001F28CCD100BFC6E7F8000020DE000020B5
:1035B000F4000020F0000020D9000020DA000020F4
:1035C0007047704700200A4908600A4908700A4994
:1035D00008700A4908700A4908700A4908600A49CF
:1035E00008600A4908600A4908600A49087070477B
:1035F000F8000020D5000020D6000020DF000020C9
:10360000DE000020C4000020E0000020D0000020E8
:10361000CC000020D400002000220B4B1A700B4974
:10362000002004E0002201F8012B421CD0B2042843
:10363000F8DB0022064B1A70064B1A70064B1A6014
:10364000064B1A6070470000D9000020DA00002005
:10365000D7000020D8000020EC000020E40000206B
:1036600030B54FF4AB61144800F07EF88021134868
:1036700000F07AF8104B03F14C0500240AE05D617C
:103680003F2083F83C0000213D20C1544C334C3591
:10369000601CC4B2112CF2D3002058613F2083F883
:1036A0003C0000213D20C15400200549086002482B
:1036B0000449086030BD000044450020C444002097
:1036C000F0000020E800002000B587B003200021B2
:1036D00080220A4BCDE90132CDE903104FF6FF708D
:1036E0001F23074A00900748FFF70CFD06AA06A112
:1036F0001F20FFF769FD07B000BD0000C442002095
:10370000C04400206139000875432F4F532D4949AB
:103710002049646C6500000000B587B003200021DB
:1037200080220A4BCDE90132CDE903104FF6FE703D
:103730001E23074A00900748FFF7E4FC06AA06A1EB
:103740001E20FFF741FD07B000BD0000C44000206F
:10375000C04200208539000875432F4F532D494939
:10376000205374617400000004E0002200F8012B73
:103770004A1E91B20029F8DC7047000010B5002401
:10378000FCF7F4FC044613480078F0B912480078BE
:10379000D8B900F02DF8114800781149097888420D
:1037A00013D010480D49097850F821000E490860DF
:1037B00008460068806A401C096888620B480068F7
:1037C000401C0A490860FCF7E8FC2046FCF7D2FCE4
:1037D00010BD0000D5000020D6000020D800002039
:1037E000D7000020C4440020EC000020C4000020CA
:1037F0000649074A1278885C0649095C034A515C0D
:1038000001EBC001044A117070470000086900080C
:10381000D9000020DA000020D80000200246002055
:1038200005E011F8013B02F8013B431CD8B20B78CC
:10383000002BF6D1137070470146002002E0491CAE
:10384000421CD0B20A78002AF9D170472DE9F84F0E
:1038500005460E4617469846DDE90BABDDF8289085
:1038600000200090FCF782FC009037480468002C90
:1038700065D008343449E06808600098FCF77AFCA9
:1038800044F8086C25760020A075E075A08244F805
:1038900004ACC4F804902760A4F808B0A4F80A8027
:1038A0006077E810A07605F007006076A17E012021
:1038B00088402077617E01208840E07600202062E9
:1038C000A0626062E06220633F2084F83400083C1C
:1038D00000213D2001552046FFF7BCFB2046FFF7A5
:1038E00071FCFCF743FC0090184840F8254018484C
:1038F000006860610020A0611548006810B114489C
:1039000000688461124804602234A0781149097863
:1039100008431049087020780F49085C6178084313
:1039200014F822190C4A50540C480078401C0B49DA
:1039300008700098FCF71EFC0020BDE8F88F009886
:10394000FCF718FC4220F8E7E8000020C4440020FF
:10395000F0000020D9000020DA000020DF00002065
:10396000002400BFFCF702FC044605480068401C28
:10397000034908602046FCF7FDFBFFF724FCF1E754
:10398000E0000020002402E0C820FFF771FD1A4883
:1039900000780028F8D0194800686421B0FBF1F0E5
:1039A000164908600846006828B9002014490870C4
:1039B000FF20FFF7FFFC00BFFCF7D8FB04461148CF
:1039C00000681149086000200E4908602046FCF795
:1039D000D1FB0D48006809490968B0FBF1F0C0F15E
:1039E000640007490870FFF745FC00F00FF86420F9
:1039F000FFF73EFDE0E70000D4000020CC000020EF
:103A0000C8000020E0000020D00000207CB5002588
:103A100014E069462846FFF72FFC064666B90948B8
:103A200050F8254044B1012C06D0D4E9020100EB46
:103A3000810060630198A063681CC5B21F2DE8DD9A
:103A40007CBD0000C444002002F0010343B102F039
:103A500002032BB102E0491E002308C00029FAD15D
:103A6000704700002DE9FF5F2848007918B9284801
:103A7000D0F800A002E02748D0F800A02349888DA4
:103A8000FCF743FE04465146FCF7FEFE04D84FF413
:103A90007A602149088033E01C49C88DFCF735FE67
:103AA00004465146FCF7E6FE04D844F620601A4965
:103AB000088025E01549C98D144A928D881AFCF7B3
:103AC0003FFE04460D461149888DFCF71EFE514607
:103AD0000190FCF716FC8346FCF79CFE064600228C
:103AE0000E4BFCF728FD22462B46CDE90201FCF7E0
:103AF00094FD8046FCF775FE00F57A600649088063
:103B00000548008800F0E2FDBDE8FF9F00010020AD
:103B100040000020480000200E0000200040CF4060
:103B200010B50024FCF722FB0446FEF775F90F4997
:103B300008802046FCF71EFB0C48B0F900009628D0
:103B400013DA0B48008840F0100009490880084645
:103B5000008840F02000088000F00CF802F04EF8D9
:103B60006420FDF716FCFEF749FB10BD0A0000209B
:103B7000080000202DE9FE431A4801680091808862
:103B8000ADF804001848D0E900211046FCF7F6FD16
:103B900006460022154BFCF740FD0446FCF74DFE9F
:103BA000804641460DF10600FDF7CCFF1049C9786B
:103BB00001EB810141F2B03202EB41000A22694679
:103BC00001F046FF0A48C078401C00F00F00084989
:103BD000C8700848008840F4007006490880BDE8B5
:103BE000FE830000020000205801002080842E4146
:103BF000B80100200800002001460020034A506858
:103C000020F440400843506070470000001002401C
:103C100029B1064AD2690243044BDA6104E0034A3F
:103C2000D2698243014BDA61704700000010024004
:103C300029B1064A12690243044B1A6104E0034A9F
:103C400012698243014B1A61704700000010024064
:103C500029B1064A92690243044B9A6104E0034A7F
:103C600092698243014B9A61704700000010024044
:103C700029B1064AD2680243044BDA6004E0034AE1
:103C8000D2688243014BDA607047000000100240A6
:103C900030B500210022002400232D4D6D6805F071
:103CA0000C0121B1042905D0082923D105E0294DB3
:103CB000056022E0274D05601FE0254D6D6805F485
:103CC0007012234D6D6805F48034022505EB924295
:103CD0001CB9214D554305600BE01D4D6D6805F481
:103CE00000351DB11C4D5543056002E0194D55438B
:103CF000056002E0174D056000BF00BF144D6D6800
:103D000005F0F0010909154D6B5C0568DD40456063
:103D10000F4D6D6805F4E061090A104D6B5C456854
:103D2000DD4085600A4D6D6805F46051C90A0B4D90
:103D30006B5C4568DD40C560054D6D6805F440412C
:103D4000890B074D6B5CC568B5FBF3F5056130BDAC
:103D50000010024000127A0000093D00AD00002072
:103D6000BD00002070B5002480212248FDF78CFFA3
:103D7000002530E00120FDF718FB40211D48FDF72C
:103D800081FF0120FDF711FB0120FDF70EFB012053
:103D9000FDF70BFB0120FDF708FB0120FDF705FBFC
:103DA00040211448FDF770FF0120FDF7FEFA0120C5
:103DB000FDF7FBFA6006040E80210E48FDF759FF5F
:103DC00008B1601CC4B20120FDF7EFFA0120FDF735
:103DD000ECFA681CC5B2082DCCDB40210548FDF784
:103DE00051FF0120FDF7E1FA0120FDF7DEFA204640
:103DF00070BD0000000C014010B592B003244822B1
:103E00006946002000F070F846216846FDF7F8F892
:103E1000BDF84610884208D1032C04D148226946D7
:103E20002D48FCF7F5F924F00104482269464FF4C7
:103E3000FA6000F059F846216846FDF7E1F8BDF850
:103E40004610884208D1032C04D1482269462248F2
:103E5000FCF7DEF924F00204032C38D148211E4877
:103E6000FCF7EFF901201C4908700B204870012075
:103E700088700420C8700020087101204871082053
:103E8000C88041F2707008814FF47A70488143F61F
:103E9000A400888142F21070C88108820020488204
:103EA00041F2680088820020C8820885488588859C
:103EB0000120C885322008860020488607484863CC
:103EC000074888630748C86301F06AFD02E00CB147
:103ED00001F066FD12B010BD0001002071D26778BC
:103EE00000002041CDCCCC3D2DE9F04104460D46EB
:103EF00016462F464FF480510E48FDF7C3FE0320AF
:103F0000FDF7FAFDC4F30720FDF7F6FDE0B2FDF77B
:103F1000F3FD03E0FDF7D0FD07F8010B301EA6F11D
:103F20000106F7D14FF480510248FDF7ADFEBDE820
:103F3000F0810000000C01403EB503240C226946CC
:103F4000B420FFF7D1FF0A216846FDF759F8BDF804
:103F50000A1088420AD1032C06D11F48009901603B
:103F6000019941600299816024F001040C226946A4
:103F700040F68400FFF7B8FF0A216846FDF740F8D5
:103F8000BDF80A1088420AD1032C06D112480099C4
:103F90000160019941600299816024F00204032CC0
:103FA00015D10D48002101604160816001F0A4FD40
:103FB0004FF4966200214FF47A6001F075FD4FF4E2
:103FC0002872002141F2707001F06EFD02E00CB128
:103FD00001F092FD3EBD0000B801002070B506461C
:103FE0000C46154600F0F4FBA22000F009FB164831
:103FF000007808B9002070BD304600F001FB12487F
:10400000007808B90020F6E700F0E2FBA32000F0FA
:10401000F7FA0D48007808B90020ECE70BE0FFF74D
:10402000A1FE04F8010B1DB10020FCF71DFE02E00B
:104030000120FCF719FE281EA5F10101CDB2EED139
:1040400000F002FC0120D6E7AB00002010B5FFF71E
:10405000D3FE00F007F800F043F800F081F8FFF716
:104060006BFF10BD3EB503240C2269464820FFF7C4
:104070003BFF0A216846FCF7C3FFBDF80A108842DF
:1040800007D1032C03D115489DE80E000EC024F083
:1040900001040C22694640F61800FFF725FF0A21AB
:1040A0006846FCF7ADFFBDF80A10884207D1032C23
:1040B00003D10A489DE80E000EC024F00204032C30
:1040C00007D10648002101604160816001F0E8FDF0
:1040D00002E00CB101F0E4FD3EBD0000480100200B
:1040E00010B58CB00324302269465420FFF7FCFE43
:1040F0002E216846FCF784FFBDF82E10884208D1B7
:10410000032C04D1302269461448FCF781F824F0CE
:1041100001043022694640F62400FFF7E5FE2E2117
:104120006846FCF76DFFBDF82E10884208D1032CBD
:1041300004D1302269460948FCF76AF824F00204E9
:10414000032C06D130210548FCF77BF801F0BCFDBB
:1041500002E00CB101F0B8FD0CB010BD5801002018
:1041600010B58CB00324302269468420FFF7BCFED2
:104170002E216846FCF744FFBDF82E10884208D176
:10418000032C04D1302269461448FCF741F824F08E
:1041900001043022694640F65400FFF7A5FE2E21A7
:1041A0006846FCF72DFFBDF82E10884208D1032C7D
:1041B00004D1302269460948FCF72AF824F00204A9
:1041C000032C06D130210548FCF73BF801F090FDA7
:1041D00002E00CB101F08CFD0CB010BD8801002094
:1041E0001CB5072269460220FFF7F8FE9DF8000083
:1041F00000F07F008DF800009DF8010000F07F00C6
:104200008DF801009DF8020000F03F008DF80200DB
:104210009DF8030000F03F008DF803009DF80400B6
:1042200000F007008DF804009DF8050000F01F0065
:104230008DF805009DF8000000F00F009DF80010BB
:10424000091101EB810100EB4100224948719DF801
:10425000010000F00F009DF80110091101EB810130
:1042600000EB41001B4908719DF8020000F00F00AF
:104270009DF80210091101EB810100EB4100154985
:10428000C8709DF8030000F00F009DF8031009119D
:1042900001EB810100EB41000E4988709DF805009B
:1042A00000F00F009DF80510091101EB810100EBF2
:1042B0004100084948709DF8060000F00F009DF885
:1042C0000610091101EB810100EB41000149087062
:1042D0001CBD00000200002010B50F4800780F49F7
:1042E00008700D484078487008468078C11C0B481B
:1042F000FCF786FE044609498978C91C074A8818D4
:104300002146FDF7A5FE05488078401D0449087048
:1043100000F0F0FE10BD0000B8040020B80300203B
:104320001800002010213A48FDF7ACFC6EE0642034
:10433000FFF79EF837480088002863D0354800888A
:1043400064285FDA344800883449098888421BDDD4
:1043500030480088FCF7D9F982463149FBF7D4FF91
:104360008146FCF757FA074600222E4BFCF73CF833
:104370000546FCF736FA84B22046FFF779F810219B
:104380002348FDF781FC41E023480088264909883D
:1043900088421BDA1F480088FCF7B7F9824620499B
:1043A000FBF7B2FF8146FCF735FA074600221D4BAA
:1043B000FCF71AF80546FCF714FA84B22046FFF71A
:1043C00057F810211248FDF75FFC1FE011480088E4
:1043D000FCF79BF982461249FBF796FF8146FCF7F2
:1043E00019FA074600220F4BFBF7FEFF0546FCF7C4
:1043F000F8F984B22046FFF73BF810210448FDF796
:1044000041FC03E010210248FDF73CFC8FE700006F
:104410000008014086000020640000208400002085
:1044200000007A440000E03F820000202DE9F041C6
:1044300005462878832874D1A878697840EA01264F
:104440006879297940EA012441F21611701A8E42E6
:1044500072D019DC41F20811A6EB01008E4236D071
:104460000BDCB6F5885F22D0A6F588500238F8B18B
:1044700002281ED004281AD122E008283FD00A289A
:1044800046D00C28F7D14EE0EE2870D008DC022888
:104490005BD00A2862D0EA286BD0EC28EBD16FE021
:1044A000F0287DD0F22873D0FA28E4D186E08AE0A3
:1044B00089E021460E2001F0E4F84548048082E0BE
:1044C0002146162001F0DDF8424804807BE00320FD
:1044D00094FBF0F100FB1140042101EB400087B296
:1044E00039462B2001F0CDF8032094FBF0F100FBBE
:1044F0001140042101EB40003749088063E037494F
:104500000C703748008840F00100354908805AE0B7
:1045100032494C703248008840F001003049088030
:1045200051E052E008E02D498C702D48008840F0A1
:1045300001002B49088046E02849CC7028480088B3
:1045400040F00100264908803DE024490C712448D0
:10455000008840F001002249088034E01F494C7176
:104560001F48008840F001001D4908802BE010E042
:10457000FFE721460A2001F084F81A48048022E06F
:1045800021460B2001F07DF8174804801BE007E06E
:104590000DE02146482001F074F81448048012E030
:1045A0002146472001F06DF8114804800BE02146B8
:1045B000252001F066F80F48048004E00E490C70D5
:1045C00001F0EEF900BF00BF00BFBDE8F0810000C0
:1045D000780000207A0000208000002002000020E7
:1045E00008000020740000207600002082000020D7
:1045F0008400002086000020000100207047000099
:1046000070B50446002526E004F0800020B180212A
:104610002C48FDF739FB03E080212A48FDF732FBE7
:104620006006040E40212748FDF72EFB0120FCF711
:10463000BCFE0120FCF7B9FE0120FCF7B6FE01200C
:10464000FCF7B3FE0120FCF7B0FE40211D48FDF74A
:1046500019FB681CC5B2082DD6DB0120FCF7A5FEAE
:104660000120FCF7A2FE80211648FDF70DFB01207A
:10467000FCF79BFE0120FCF798FE40211148FDF756
:1046800003FB0120FCF791FE0120FCF78EFE0120C8
:10469000FCF78BFE80210B48FDF7EBFA18B10020E8
:1046A0000949087002E001200749087040210548C7
:1046B000FDF7E8FA0120FCF778FE0120FCF775FE13
:1046C00070BD0000000C0140AB00002010B5044696
:1046D00004F1B40084B245F68170844200DD0446E2
:1046E0002146024800F06CFB10BD000000040040B1
:1046F00010B500F001F810BD0CB50020019000903D
:104700003148006840F480302F49086000BF2E48CF
:10471000006800F4003000900198401C019000985F
:1047200020B94FF6FF7101988842F0D12648006801
:1047300000F4003010B10120009001E00020009052
:10474000009801283FD12148006840F010001F491F
:1047500008600846006820F003000860084600680A
:104760000860194840681849486008464068486031
:104770000846406848600846406820F47C1048605D
:104780000846406840F4981048600846006840F0C9
:104790008070086000BF0C48006800F000700028BE
:1047A000F9D00948406820F00300074948600846EE
:1047B000406840F00200486000BF0348406800F0D5
:1047C0000C000828F9D10CBD001002400020024066
:1047D00010B580211B48FDF757FA0120FCF7E5FDD5
:1047E00040211848FDF750FA0120FCF7DEFD0120BA
:1047F000FCF7DBFD0120FCF7D8FD0120FCF7D5FD1F
:104800000120FCF7D2FD80210E48FDF73BFA012084
:10481000FCF7CBFD0120FCF7C8FD0120FCF7C5FD2E
:104820000120FCF7C2FD0120FCF7BFFD4021054837
:10483000FDF728FA0120FCF7B8FD0120FCF7B5FDD3
:1048400010BD0000000C014010B580211448FDF798
:1048500019FA0120FCF7A9FD40211148FDF714FACF
:104860000120FCF7A2FD0120FCF79FFD0120FCF7D1
:104870009CFD0120FCF799FD0120FCF796FD8021AD
:104880000748FDF701FA0120FCF78FFD0120FCF736
:104890008CFD0120FCF789FD0120FCF786FD10BD91
:1048A000000C014010B5FEF757FBFEF719FEFEF7AE
:1048B00065FB10BD30B585B06846FFF7E9F94FF4E8
:1048C0007A720098B0FBF2F1B1F1807F00D31DE065
:1048D00021F07F40401E4FF0E022506150170F2220
:1048E000002807DA13071D0E094B00F00F04241FE0
:1048F0001D5503E013071C0E064B1C5400BF00207F
:104900004FF0E02290610720106100BF05B030BD7C
:1049100018ED00E000E400E010B51348006840F036
:1049200001001149086008464068104908400E49D6
:104930004860084600680E4908400B490860084670
:10494000006820F4802008600846406820F4FE00DB
:1049500048604FF41F008860FFF7CAFE4FF0006008
:104960000449086010BD0000001002400000FFF87C
:10497000FFFFF6FE08ED00E000B587B00121022040
:10498000FFF746F9144800F0B5F845F6B370ADF8F6
:1049900014000420ADF810000020ADF81600ADF8AA
:1049A000120004A90C4800F00DFA6020ADF80000D8
:1049B0000120ADF802000220ADF808006946064863
:1049C00000F0ACF905480088FFF780FE012102489D
:1049D00000F084F807B000BD000400400E00002085
:1049E0000EB501210420FFF713F90E4800F082F8FC
:1049F0004FF6FF70ADF8040040F2DF10ADF8000094
:104A00000020ADF80600ADF802006946054800F048
:104A1000D9F90221034800F05BF80121014800F0B8
:104A20005DF80EBD0008004010B50221224800F0DC
:104A30005BF900283ED002211F4800F04CF81F48C7
:104A40000078A8B901201D4908701B4800F046F9FC
:104A50001B490988084484B22146174800F0AEF982
:104A60001848008830B302211748FDF70DF921E0FE
:104A7000002012490870104800F030F913490988E5
:104A8000084484B221460C4800F098F902210E48EF
:104A9000FDF7F8F80B48008860B10A480088401E0E
:104AA000084908800846008820B9002202210248EF
:104AB00000F02BF910BD000000080040AA00002003
:104AC0004E0000204C000020000C0140500000204F
:104AD000CA4302827047CA430282704721B10288EA
:104AE00042F00102028004E002884FF6FE731A4091
:104AF0000280704710B504466848844208D10121FD
:104B0000C014FFF7B5F80021E014FFF7B1F8C4E0D6
:104B1000B4F1804F08D101210846FFF789F8002140
:104B20000120FFF785F8B8E05D48844208D10121F3
:104B30000220FFF77DF800210220FFF779F8ACE0B2
:104B40005848844208D101210420FFF771F8002160
:104B50000420FFF76DF8A0E05348844208D10121FA
:104B60000820FFF765F800210820FFF761F894E0BE
:104B70004E48844208D101211020FFF759F8002146
:104B80001020FFF755F888E04948844208D10121F8
:104B90002020FFF74DF800212020FFF749F87CE0A6
:104BA0004448844208D101214014FFF761F80021F4
:104BB0006014FFF75DF870E03F48844209D101219D
:104BC000C804FFF755F800214FF40020FFF750F814
:104BD00063E03A48844209D101210805FFF748F80B
:104BE00000214FF48010FFF743F856E03448844228
:104BF00009D101214805FFF73BF800214FF40010CF
:104C0000FFF736F849E02F48844208D101214020BF
:104C1000FFF70EF800214020FFF70AF83DE02A4890
:104C2000844208D101218020FFF702F80021802072
:104C3000FEF7FEFF31E02548844208D101218015AE
:104C4000FEF7F6FF0021A015FEF7F2FF25E0204851
:104C5000844209D101210804FFF70AF800214FF42A
:104C60008030FFF705F818E01A48844209D1012185
:104C70004804FEF7FDFF00214FF40030FEF7F8FF77
:104C80000BE01548844208D101218804FEF7F0FFAB
:104C900000214FF48020FEF7EBFF10BD002C0140F7
:104CA0000004004000080040000C004000100040DC
:104CB0000014004000340140004C0140005001400D
:104CC0000054014000180040001C0040002000403B
:104CD0000040014000440140004801400146888EE8
:104CE00070470146888C704730B50246002000238B
:104CF0000024158A05EA0103958905EA010413B128
:104D00000CB1012000E0002030BD1AB183890B43B3
:104D1000838102E083898B438381704770B50024CF
:104D200000220023058C4FF6FF6635400584028C77
:104D30008388848B4FF68F752C404FF6FC752C4082
:104D40000D882C434FF6FF552A400D894FF6FF760C
:104D500006EA05252A434D8806EA05252A43154D0E
:104D6000A84202D0144DA8421DD14FF2FF752A402F
:104D70004D894FF6FF7606EA05252A434FF6FF35A3
:104D80002A408D8806EA05252A434EF6FF752B40FA
:104D90004DF6FF752B408D8906EA05152B43CD890D
:104DA00006EA05152B4383808483CD88858702849A
:104DB00070BD0000002C0140003401408186704726
:104DC00081877047002202881D4B98420ED01D4BF0
:104DD00098420BD0B0F1804F08D01B4B984205D0C1
:104DE0001A4B984202D01A4B984204D14FF68F7357
:104DF0001A404B881A43174B984207D0164B9842DB
:104E000004D04FF6FF431A40CB881A4302808B88A8
:104E100083850B8803850A4B98420BD0094B984237
:104E200008D00E4B984205D00D4B984202D00D4B46
:104E3000984201D10B7A03860123838270470000D8
:104E4000002C0140003401400004004000080040F4
:104E5000000C0040001000400014004000400140E1
:104E600000440140004801403FE00120FEF700FB04
:104E7000FEF756FE1D480088401C1C490880084665
:104E80000088B0F5FA7F04D008460088B0F57A7F34
:104E900002D101201649087014480088B0F57A7FC5
:104EA00023D100201149088012480088401C114974
:104EB00008801148C07820B10F48C078401E0E49C4
:104EC000C8700D48807820B10B488078401E0A4990
:104ED00088700A484068401C0849486008480088B3
:104EE00018B108460068401C0860BEE78C0000202E
:104EF000200000200C00002052000020480100206B
:104F00001E00002020210448FCF7BEFE03E04FF401
:104F1000FA70FEF7ADFAFAE70010014018E04FF41E
:104F2000FA70FEF7A5FA0B48C06880F00400094942
:104F3000C8604FF4FA70FEF79BFA0648C06880F02C
:104F400004000449C8600846C06880F00800C860D2
:104F5000E5E7000000100140FFF778F84FF47A70A1
:104F6000FEF786FA4CE00120FEF782FA25484078E9
:104F700025490978884232D0224840782249087071
:104F800020484078032190FBF1F101208840C0EBDC
:104F9000001000EB80004FF6FF7101EA0015194880
:104FA0004078032190FBF1F201FB1200C4B234B946
:104FB0004524082221462846FBF798FF0EE0012CE5
:104FC00006D14F24082221462846FBF78FFF05E033
:104FD0004E24082221462846FBF788FF00BF0B48D5
:104FE0000078FF2804DA09480078401C0749087057
:104FF0000748008808B100F001FE1420FEF738FAD7
:10500000B1E70000000100208E0000201B000020FE
:1050100008000020FFF7E4F81648007816490870E9
:10502000144840781549087012488078144908706F
:10503000FCF7F4F81DE00520FEF71AFA1148007895
:10504000B8B11148007818B100200F49087002E08B
:1050500001200D49087000200A4908700A480078AC
:1050600038B1FCF7F9F8FCF79FFBFBF733FEFEF7CE
:10507000F9FCE0E702000020560000205700002065
:1050800058000020200000208F0000204FF4FA700C
:10509000FEF7EEF901E0FFF745F9FCE74FF4FA708F
:1050A000FEF7E6F901E0FCF799F9FCE74FF4FA7036
:1050B000FEF7DEF9FBF76EFF03E04FF4FA70FEF740
:1050C000D7F9FAE710B502210748FCF7DDFD082003
:1050D000FEF7CEF9002005490870012240F2277141
:1050E000034800F033FA10BD00080140150000200D
:1050F0000044004010B504210F48FCF7C5FD0A200C
:10510000FEF7B6F90D48008800F4806048B90B48F6
:10511000001D008820F4405040F400500749091D4C
:105120000880002006490870012240F227710348D8
:105130000C3800F00BFA10BD000C01400C48004088
:105140001900002010B540F225512C4800F0D4F988
:10515000002840D000202A490870284800F088FA2A
:105160002849294A1278885427480078632804D2AD
:1051700025480078401C24490870234800780428FA
:1051800023DD21480078401E1E49085C4B281CD1B5
:105190001D480078801E085C4F2816D11A480078F8
:1051A000001F085C032810D117480078401F085CD6
:1051B000A5280AD114480078801F085C5A2804D119
:1051C00011480078801F10490870012240F22441E4
:1051D0000A4800F0BBF940F22441084800F08CF97D
:1051E00050B10648001D0488001F0488002240F2C8
:1051F000244100F0ABF900BF10BD0000004C00409E
:105200001D0000201C0500201C00002010B540F2ED
:1052100025512C4800F070F9C0B100202A490870CF
:10522000284800F025FAC1B22848294A127881544A
:1052300027480078632804D225480078401C244978
:10524000087040F225511F4800F02EF940F22771F6
:105250001C4800F051F910B31E4800781E49097827
:1052600088420BDA1B4802780078401C194B1870F2
:105270001A48815C134800F000FA0BE0002240F26B
:105280002771104800F062F9012240F226610D48B2
:1052900000F05CF940F227710A4800F005F940F28D
:1052A0002661084800F028F950B1002240F226613A
:1052B000044800F04BF94FF400610948FCF7E2FCA8
:1052C00010BD00000038014013000020280200201B
:1052D000120000201100002010000020C401002056
:1052E0000008014010B540F225512B4800F004F9A8
:1052F000C0B1002029490870274800F0B9F9C1B2AF
:105300002748284A1278815426480078C72804D2B2
:1053100024480078401C2349087040F225511E485B
:1053200000F0C2F840F227711B4800F0E5F810B316
:105330001D4800781D49097888420BDA1A4802781E
:105340000078401C184B18701948815C124800F016
:1053500094F90BE0002240F227710F4800F0F6F8B4
:10536000012240F226610C4800F0F0F840F227716B
:10537000094800F099F840F22661074800F0BCF8AF
:1053800048B1002240F22661034800F0DFF8022114
:105390000848FCF777FC10BD0044004017000020CF
:1053A000F00200201600002015000020140000204C
:1053B0008C0200200008014010B540F2255132480F
:1053C00000F09AF8C0B10020304908702E4800F073
:1053D0004FF9C1B22E482F4A127881542D480078D7
:1053E000632804D22B480078401C2A49087040F2F8
:1053F0002551254800F058F840F22771224800F066
:105400007BF810B3244800782449097888420BDAE5
:10541000214802780078401C1F4B18702048815C9E
:10542000194800F02AF90BE0002240F227711648D3
:1054300000F08CF8012240F22661134800F086F853
:1054400040F22771104800F02FF840F226610E4814
:1054500000F052F8B8B1002240F226610A4800F08C
:1054600075F804210F48FCF70DFC07480C30008844
:1054700000F4806038B904481030008820F44050AF
:1054800001491031088010BD004800401B00002079
:10549000B80400201A000020190000201800002085
:1054A000B8030020000C014010B50022002340F694
:1054B0006A14A14200D100BF0A1201249440A3B291
:1054C000DC43048010BD21B1828942F40052828104
:1054D00004E082894DF6FF731A40828170470246CC
:1054E0000020B1F5007F00D100BF13880B400BB145
:1054F000012000E00020704770B502460024002320
:105500000025002040F66A16B14200D100BFC1F369
:10551000421501F01F03012606FA03F3012D02D103
:105520009689334006E0022D02D1168A334001E00D
:10553000968A33400C12012606FA04F41688344089
:1055400013B10CB1012000E0002070BDF0B503469E
:10555000002400260025002040F66A17B94200D139
:1055600000BF1846C1F3421401F01F06012707FAD5
:1055700006F5012C01D10C3004E0022C01D11030D1
:1055800000E014301AB107682F43076002E0076893
:10559000AF430760F0BD00002DE9F04786B0054637
:1055A0000E460024A24600BFA1460027B08900B1E4
:1055B00000BF2F462C8A4CF6FF700440F08804434D
:1055C0002C82AC894EF6F3100440B0883189084330
:1055D000718908430443AC81AC8A4FF6FF40044014
:1055E000B0890443AC8201A8FEF752FB1F488742F2
:1055F00002D1DDF810A001E0DDF80CA0A88900F4CC
:10560000004040B10AEBCA0000EB0A1031684900C3
:10561000B0FBF1F807E00AEBCA0000EB0A103168B2
:105620008900B0FBF1F86420B8FBF0F00401200918
:10563000642101FB1089A88900F4004040B13220A8
:1056400000EBC900B0FBF1F000F00700044308E0F4
:10565000322000EB09106421B0FBF1F000F00F00E4
:1056600004432C8106B0BDE8F087000000380140FB
:1056700001468888C0F308007047C1F308028280A1
:10568000704770B504460D462946204600F002F8E2
:1056900070BD00002DE9F04104460E4600250027AC
:1056A0000020264908700121244802780078401C17
:1056B000224B18702248815406211846027800783F
:1056C000401C18701E48815401461A4612788818EA
:1056D0002146FCF7BDFC19480078801C174908706A
:1056E0001749164A127888183146FCF7B1FC13485E
:1056F0000078801C11490870084601781048FBF7B3
:105700007FFC80460E490D4A127888184146FCF706
:105710009FFC0A480078801C0849087000BF08E018
:10572000FFF7D0FCFBF79EFB47B207B10525681CCD
:1057300005B2052DF4DBBDE8F08100001400002067
:105740008C02002000BFFEE770B50546002400264D
:1057500000BF05E02748005D27490855601C04B2DA
:10576000AC42F7DB01202449087024480178224824
:10577000FBF736FC00240AE020490D70FFF7A2FC7D
:10578000FBF770FB46B206B10A24601C04B2082C79
:10579000F2DB19484078012806D1174840793028B3
:1057A00002DD174800F08CF8FEB1002406E0144832
:1057B000C01E005D13490855601C04B212480078F1
:1057C0008442F4DB104800781049087010480078D3
:1057D0000C4908700E48007881F834000B480178B5
:1057E0000848FBF7FDFBFFF785FC00250020094971
:1057F000087070BDB80400208C0200201400002046
:10580000F3020020B803002016000020180000203A
:10581000000100201A0000202DE9F04104460D4649
:1058200016460027182C04D0482C0AD04A2C39D10F
:1058300033E02846FBF708FD1F49087000F0B0F878
:1058400035E02846FBF700FDB0F5966F09D0B0F5BE
:10585000166F0AD0B0F5965F0BD0B0F5964F10D109
:105860000BE00220144948700FE0052012494870EF
:105870000BE008201049487007E00E200E494870E0
:1058800003E00B200C49487000BF00BF0B480088A4
:1058900040F002000949088009E02846FBF7D4FCE3
:1058A000074604E03046FFF74FFFBDE8F08100BF38
:1058B00000F00AFB00BFF8E700010020080000200C
:1058C00010B504462046FBF7BFFC27490880A01C02
:1058D000FBF7BAFC25490880201DFBF7A7FC2449EB
:1058E000086004F10800FBF7A1FC2249086004F1FC
:1058F0000C00FBF79BFC2049086004F11400FBF747
:10590000A3FC1E49088004F11600FBF79DFC1C490E
:10591000088004F11C00FBF797FC1A49088004F189
:105920002C00FBF791FC1849088004F15600FBF7A6
:105930008BFC1649088004F19000FBF785FC1449A4
:10594000088004F18E00FBF77FFC1249088004F107
:105950004A00FBF779FC1049088004F17600FBF758
:1059600073FC0E49088010BD620000206400002016
:10597000680000206C0000207000002074000020EF
:1059800076000020780000207A00002080000020AF
:105990008200002084000020860000208800002073
:1059A00010B546210848FBF72BFB0749A1F8460034
:1059B0004822002000F04CF8482203494FF4FA60D6
:1059C00000F046F810BD0000000100202DE9FE4364
:1059D0001A48016800918088ADF804001848D0E9A1
:1059E00004211046FAF7CAFE06460022154BFAF7C4
:1059F00014FE0446FAF721FF804641460DF10600E9
:105A0000FCF7A0F81049897801EB810141F23012CE
:105A100002EB41000A22694600F01AF80A48807831
:105A2000401C00F03F00084988700848008840F496
:105A3000007006490880BDE8FE83000002000020D7
:105A40005801002080842E41B80100200800002069
:105A50002DE9F04104460D4616462F4600F022FA85
:105A60004FF480510F48FCF70DF90220FCF744F881
:105A7000C4F30720FCF740F8E0B2FCF73DF803E080
:105A800017F8010BFCF738F8301EA6F10106F7D124
:105A90004FF480510348FCF7F7F800F0F1F9BDE846
:105AA000F0810000000C014070B504460D4616461A
:105AB00000F0F8F94FF480510E48FCF7E3F80220AB
:105AC000FCF71AF8C4F30720FCF716F8E0B2FCF76D
:105AD00013F802E02846FCF70FF8301EA6F1010685
