:020000040800F2
:10000000306A002045010008254D0008B12700088E
:10001000B94900085D0F00089F7A00080000000041
:10002000000000000000000000000000F56600086D
:100030007119000800000000AB010008816C000885
:100040005F0100085F0100085F0100085F01000810
:100050005F0100085F0100085F0100085F01000800
:100060005F0100085F0100085F0100085F010008F0
:100070005F0100085F0100085F0100085F010008E0
:100080005F0100085F0100085F0100085F010008D0
:100090005F0100085F0100085F0100085F010008C0
:1000A0005F0100085F0100085F0100085F010008B0
:1000B0005F0100085F010008056E00085F0100088D
:1000C0005F0100085F0100085F0100085F01000890
:1000D0005F0100082976000801770008D57700083D
:1000E0005F0100085F0100085F0100085F01000870
:1000F0005F0100085F0100085F0100085F01000860
:100100005F0100085F0100085F0100085F0100084F
:10011000D97500085F0100085F0100085F01000851
:100120005F0100085F0100085F0100085F0100082F
:10013000DFF80CD000F038FD0048004765AB000840
:10014000306A00200648804706480047FEE7FEE781
:10015000FEE7FEE7FEE7FEE7FEE7FEE7FEE7FEE777
:10016000F56C000831010008EFF3108072B670479B
:1001700080F3108870471D484FF0FF010170002088
:1001800080F309881A48012101701A484FF0805104
:10019000016062B6FEE717484FF08051016070477A
:1001A00014484FF080510160704772B6EFF3098038
:1001B00028B1203880E8F00F0F490968086000B5C1
:1001C0000E4880475DF804EB0D480E490A7802702E
:1001D00009480D490A680260106890E8F00F203065
:1001E00080F309884EF0040E62B6704722ED00E0FD
:1001F000B200002004ED00E0B80000208D5300089C
:10020000AB000020AC000020C000002040EA010349
:100210009B0703D009E008C9121F08C0042AFAD2BC
:1002200003E011F8013B00F8013B521EF9D2704780
:10023000D2B201E000F8012B491EFBD27047002228
:10024000F6E710B513460A4604461946FFF7F0FFD5
:10025000204610BD421C10F8011B0029FBD1801A5A
:100260007047F0B480EA0102D40F4200B2EB410FB4
:1002700002D20246084611464A0042D0C30DDDB202
:10028000C1F3C752AD1A202D35DAC1F3160141F47E
:10029000000204B15242C5F1200602FA06F12A41D9
:1002A0001044B3EBD05F23D0C4B1012DA0EBC350F9
:1002B00009DCF0BC4FF0004202EAC35200F5000036
:1002C000DBB200F0A2BB400000F1807000EBC35035
:1002D000A0F1807040EAD170490009E0490841EA84
:1002E000C071A0EBC35000F50000400800EBC35004
:1002F000F0BC00F081BB6142012202EB4101001B16
:10030000F6E7F0BC704781F00041AAE780F00040BA
:10031000A7E780EA010210B502F00043400026D0B2
:100320004A0023D04FEA106101EB1261C0F356007E
:10033000C2F3560240F4000042F40002A0FB022087
:10034000A1F17F014FEA0040140401D000F1010047
:1003500050EA124001D44000491EC2B20C0604EB20
:10036000D010401C4008802A02D003E0002010BDBD
:1003700020F00100002900DA0020184310BD30B43D
:1003800080EA010202F0004530F0004221F0004016
:1003900015D0A0B1C0F3C753C2F3C754C2F31601BE
:1003A000C0F31600E41A41F4000140F400027D3469
:1003B000914201D3641C00E04900002C02DA30BCF9
:1003C000002070474FF400000023914201D3891AA6
:1003D000034340084FEA4101F7D151B1914202D1A4
:1003E0004FF0004105E002D24FF0010101E06FF053
:1003F000010103EBC450284430BC00F0FDBA2DE9E4
:10040000FE4F804681EA0300C00F0C46009021F0A9
:10041000004123F00045B8EB0200A94105D2404657
:10042000214690461C460B46024623F000401043EE
:1004300004D14046214603B0BDE8F08F270DC7F335
:100440000A00C3F30A510290401A0190402866DA6C
:10045000C3F3130040F4801B0098924620B10023A0
:10046000D2EB030A63EB0B0B01985946C0F1400233
:10047000504600F090FA06460D4650465946019AFD
:1004800000F0A8FA10EB08006141002487EA11523D
:1004900084EAE7731A433BD0009A3AB3019A012ADF
:1004A0004FEA075210DC001B61EB02014FF00042E3
:1004B00002EA0752CDE90042001C41F580113246A4
:1004C0002B4600F0DCFAB6E7001B61EB0201001CD2
:1004D00041F5801300185B412018A2F5001747EB87
:1004E000030140EAD570B6196D4111E06D084FEA7D
:1004F000360645EAC0754FEA0752001B61EB020160
:10050000001C41F5801149084FEA300000195141A3
:1005100032462B4603B0BDE8F04F00F0A3BA009876
:10052000012240000023D0EB020263EBE07300984D
:1005300021464FEAE074B8EB000061EB0401E9E703
:1005400083F000435BE781F0004158E72DE9FE4F5F
:1005500081EA030404F0004421F0004100944FF0CC
:10056000000B23F0004350EA010402D052EA0304D6
:1005700004D10020014603B0BDE8F08FC3F30A5454
:10058000C1F30A552C44A4F2F3340194A0FB0254A5
:10059000C1F3130141F48011C3F3130343F4801337
:1005A00001FB024400FB034E840A970A44EA81548B
:1005B00047EA8357A4FB076802958D0A05FB078568
:1005C0004FEA932C04FB0C542705029D4FEA065872
:1005D00047EA1637B5EB08056EEB070C870E920E4F
:1005E00047EA811742EA8312A7FB0201B6EB0B012F
:1005F00064EB00042B0D43EA0C335E1844EB1C50F3
:10060000DA465146E7FB0201C5F313044FEA0B3308
:1006100043EA14534FEA0432019C43EA0603A4F16F
:100620000C040294009CCDE900B400F028FAA2E783
:100630002DE9F04D81EA030404F0004B21F0004560
:1006400014464FF0000A23F0004150EA050220D082
:1006500054EA01021DD0C5F30A570246C5F313033D
:10066000C1F31300C1F30A5640F4801543F480131C
:10067000A7EB0608101BD64608F2FD3873EB050001
:1006800002D308F1010801E092185B41B8F1000FB4
:1006900003DA00200146BDE8F08D00204FF4801100
:1006A000064684460EE0171B73EB050705D3121BA5
:1006B00063EB050306434CEA010C49084FEA30009E
:1006C00092185B4150EA0107EDD152EA030012D0C3
:1006D00082EA040083EA0501084303D100224FF0B7
:1006E000004308E0101BAB4102D20122002302E0CC
:1006F0006FF0010253101AEB06004CEB085110EB9F
:100700000A0041EB0B01BDE8F04D00F0ABB9C10FA1
:1007100080EAE0700844CA079623002100F075B90A
:1007200096230022114600F070B9F0B4CA17CB0F1F
:1007300050405140C61851F100004FEAC372314693
:100740004FF0960303D0B623F0BC00F05EB93046FC
:100750000021F9E70EB5C10F80EAE0700844CA072E
:10076000002140F233438DE80E000A460B4600F0AC
:1007700086F903B000BD0EB540F23341029100216D
:10078000CDE900110A460B4600F079F903B000BD2F
:100790003EB5CA17CB0F002450405140C0186141EC
:1007A000DA0740F233430094CDE901232246234681
:1007B00000F065F903B030BD00F0004220F00040C9
:1007C000C10DC0F3160040F400007F2901DA0020BB
:1007D0007047962903DCC1F19601C84001E09639C3
:1007E0008840002AF4D04042704720F00040C10DFC
:1007F000C0F3160040F400007F2901DA00207047A2
:10080000962903DCC1F19601C840704796398840AB
:10081000704770B5C1F30A5201F000450024C1F3DE
:10082000130140F2FF3341F480119A4201DA0020B3
:1008300070BD40F233439A42A2F2334203DC52428B
:1008400000F0B8F800E090402C43F1D0404270BD79
:10085000C1F30A5210B5C1F3130140F2FF3341F462
:1008600080119A4201DA002010BD40F233439A42CF
:10087000A2F2334203DC524200F09CF810BD9040DB
:1008800010BD00F0004230F000400AD0C10D01F56B
:100890006071C0F3160042EA0151C20840071143DB
:1008A000704700200146704701F0004330B421F04A
:1008B000004150EA010206D00A0DA2F56072C1F3B0
:1008C0001301002A02DC30BC00207047440F44EAC8
:1008D000C104C100E01830BC00EBC25000F08CB87D
:1008E000002801DBC0F10040002901DBC1F100411B
:1008F00081427047002801DBC0F10040002901DB84
:10090000C1F100418842704730B50B4601460020D6
:100910002022012409E021FA02F59D4205D303FAC1
:1009200002F5491B04FA02F52844151EA2F1010242
:10093000F1DC30BD2DE9F05F0546002092469B4674
:1009400088460646814640241BE0284641464746E5
:10095000224600F02FF853465A46C01A914110D350
:1009600011461846224600F016F82D1A67EB0108CA
:100970004F4622460120002100F00DF817EB000938
:100980004E41201EA4F10104DFDC484631462A46D0
:100990004346BDE8F09F202A04DB203A00FA02F12A
:1009A000002070479140C2F1200320FA03F319435D
:1009B00090407047202A04DB203A21FA02F00021FF
:1009C000704721FA02F3D040C2F12002914008435F
:1009D00019467047202A06DBCB17203A41FA02F06D
:1009E00043EAE07306E041FA02F3D040C2F120028C
:1009F00091400843194670470029A8BF7047401C22
:100A0000490008BF20F00100704710B4B0FA80FC24
:100A100000FA0CF050EA010404BF10BC704749B161
:100A2000CCF1200421FA04F411FA0CF118BF0121D1
:100A300021430843A3EB0C01CB1D0106000A002B48
:100A4000BEBF002010BC704700EBC350104400290B
:100A5000A4BF10BC7047401C490008BF20F0010033
:100A600010BC704710B5002B08DA401C41F10001A2
:100A700092185B411A4301D120F0010010BD2DE90D
:100A8000F04D92469B4611B1B1FA81F202E0B0FA04
:100A900080F220329046FFF77EFF04460F4640EA80
:100AA0000A0041EA0B0153465A46084303D1204647
:100AB0003946BDE8F08D114653EA010015D0C8F162
:100AC00040025046FFF776FF05460E46504659460F
:100AD0004246FFF760FF084301D0012000E00020FC
:100AE000054346EAE0762C4337430A984FEA4453DD
:100AF000A0EB08004FEAD4240A304FF0000244EA89
:100B000047544FEAD72502D500200146D1E7010519
:100B100010196941DDE9084500196941BDE8F04D4A
:100B2000A0E770B521F0004303430CD0C1F30A5590
:100B30000024D5EB040564EB0403D617AD1AB341CA
:100B400002DB0020014670BD201841EB025170BD50
:100B5000C1F30A52C1F3130140F2FF3341F4801193
:100B60009A4202DA00200146704740F233439A422B
:100B7000A2F2334202DC5242FFF71CBFFFF70BBF69
:100B800030B5002904DB4FF00044404264EB010122
:100B9000002B04DB4FF00044524264EB0303994204
:100BA00008BF904230BD0000064C074D06E0E068EB
:100BB00040F0010394E8070098471034AC42F6D3A4
:100BC000FFF7BAFAD0BA0008F0BA000870B501EB26
:100BD000020410F8015B15F0070301D110F8013B86
:100BE0002A1106D110F8012B03E010F8016B01F86F
:100BF000016B5B1EF9D12B0705D40023521E0FD4C5
:100C000001F8013BFAE710F8013B02F10202A1EB07
:100C1000030303E013F8015B01F8015B521EF9D5F1
:100C2000A142D6D3002070BD00B585B00121480295
:100C300005F046F8002005F017F8002000908DF828
:100C400004008DF805004FF460200290002003900E
:100C500001208DF8100069460E4800F041F801218E
:100C60000C4800F019F8142000F08FFE094800F03D
:100C7000BBF800BF074800F028F80028FAD1054863
:100C800000F0C2F800BF034800F011F80028FAD1C4
:100C900005B000BD0024014021B1826842F001028C
:100CA000826003E0826822F00102826070470146A0
:100CB00000208A6812F0040F01D0012000E000201B
:100CC00070470146C86C80B27047014600208A68B0
:100CD00012F0080F01D0012000E000207047000052
:100CE00030B502460020002350680F4C20400D799B
:100CF0000C6844EA05242043506090680B4C204067
:100D0000D1E902542C434D7944EA450420439060D4
:100D1000D06A20F470000C7C641EE4B2234340EAE5
:100D20000350D06230BD0000FFFEF0FFFDF7F1FF81
:100D3000F0B504460D4600200021092D11DDE068C4
:100D4000A5F10A0606EB4607072606FA07F18843CF
:100D5000A5F10A0606EB460603FA06F10843E06031
:100D60000CE0206905EB4507072606FA07F18843E2
:100D700005EB450603FA06F108432061072A0FDA5E
:100D8000606B561E06EB86071F2606FA07F188439E
:100D9000561E06EB860605FA06F10843606322E05C
:100DA0000D2A0FDA206BD61F06EB86071F2606FAE0
:100DB00007F18843D61F06EB860605FA06F10843BD
:100DC000206310E0E06AA2F10D0606EB86071F26FD
:100DD00006FA07F18843A2F10D0606EB860605FA2E
:100DE00006F10843E062F0BD816841F008018160CE
:100DF000704721B1826842F4A002826003E08268F9
:100E000022F4A00282607047816841F00401816091
:100E10007047000010B5044624B98021174801F03E
:100E200063FA03E08021154801F060FA012000F028
:100E3000ACFD012000F0A9FD012000F0A6FD40213D
:100E40000E4801F053FA012000F09FFD012000F050
:100E50009CFD012000F099FD012000F096FD01208D
:100E600000F093FD4021054801F03EFA012000F01A
:100E70008CFD012000F089FD10BD0000000C014038
:100E800010B50C4840793B2805DA0A484079401CE7
:100E9000084948710DE0002006494871084600796C
:100EA0003B2804DA08460079401C087101E005F08F
:100EB000CFF910BD0600002010B50523174A002108
:100EC000174804F059F80623164A0021164804F082
:100ED00053F80723154A0021154804F04DF808235C
:100EE000144A0021144804F047F80923134A00214A
:100EF000134804F041F80A23124A0021124804F072
:100F00003BF80B23114A0021114804F035F80C235B
:100F1000104A0021104804F02FF810BD6C0B00207F
:100F2000457200083C130020E17200080C1B0020F1
:100F30000D730008DC22002049730008AC2A002051
:100F4000257400087C320020DD7400084C3A002033
:100F5000F17400081C4200200975000800BFFEE77C
:100F60001FB50121880304F0ABFE4FF4165000902A
:100F70000020ADF80400ADF80600ADF80800ADF8AB
:100F80000C000C20ADF80A006946094806F012FD75
:100F90000121074806F0A5FC012240F22551044832
:100FA00006F0E2FC4FF40061024801F09DF91FBD1C
:100FB000003801400008014010B500201C490870AD
:100FC00032240BE0012004F0E3F91A4800781A49B2
:100FD0000978884200DB03E0601EC4B2002CF1DC1B
:100FE00000BF642408E0012004F0D2F91048007822
:100FF00000B103E0601EC4B2002CF4DC00BF00248A
:1010000004E00B480478042004F0C2F90848007892
:101010008442F6D106480078072807DD04480178A5
:10102000064800F0F7F808B9012010BD0020FCE7E1
:10103000160000201500002014000020500400209D
:101040001FB50121480404F01BFE4FF41650009018
:101050000020ADF80400ADF80600ADF80800ADF8CA
:101060000C000C20ADF80A006946094806F0A2FC05
:101070000121074806F035FC012240F225510448C1
:1010800006F072FC0221034801F02EF91FBD00009A
:10109000004400400008014010B500201C490870C1
:1010A00032240BE0012004F073F91A4800781A4941
:1010B0000978884200DB03E0601EC4B2002CF1DC3A
:1010C00000BF642408E0012004F062F910480078B1
:1010D00000B103E0601EC4B2002CF4DC00BF0024A9
:1010E00004E00B480478042004F052F90848007822
:1010F0008442F6D106480078072807DD04480178C5
:10110000064800F087F808B9012010BD0020FCE770
:101110001A000020190000201800002018050020E7
:101120007FB506460C4615460121880404F0A8FD4B
:101130000096072D03D10020ADF804000FE06F2CBE
:1011400005D04F2C03D0652C01D0452C04D14FF491
:101150008050ADF8040002E00020ADF8040000204B
:10116000ADF806006F2C01D04F2C04D14FF4C060B5
:10117000ADF808000BE0652C01D0452C04D14FF4EC
:101180008060ADF8080002E00020ADF80800002003
:10119000ADF80C000C20ADF80A006946084806F0CE
:1011A00009FC0121064806F09CFB012240F2255172
:1011B000034806F0D9FB0421024801F095F87FBDF1
:1011C00000480040000C01401FB50121C80404F094
:1011D00057FD4FF4E13000900020ADF80400ADF869
:1011E0000600ADF80800ADF80C000C20ADF80A00C0
:1011F0006946074806F0DEFB0121054806F071FB51
:10120000012240F22551024806F0AEFB1FBD00004E
:10121000004C0040F0B502460B46FF24FF25164661
:1012200009E016F8010B80EA04010748405C80EAF7
:1012300005040648455C1800A3F10107BBB2F0D1D4
:1012400045EA0420F0BD000032B1000832B20008C7
:1012500010B500F005F800F027F800F001F910BD16
:1012600070B50D4801680D480068FFF752F8044654
:1012700000212046FFF73EFB01D8204601E084F024
:1012800000400546064801682846FFF729FB00D2C2
:1012900000240448046070BD2800002038000020AD
:1012A0007C0000203C00002010B504480168044880
:1012B0000068FFF72EF80349086010BD3C000020CD
:1012C00040000020440000202DE9F05F0D494889CE
:1012D000FFF751FA04460D460A494889FFF74BFAD1
:1012E0008046094A094BFFF731F9064622462B464C
:1012F000FFF72CF98246FFF7D7FA05490860BDE8E9
:10130000F09F000028030020534A0856D5A5FD3E53
:10131000400000202DE9F04F8BB04848407900286C
:101320004FD046494879FFF726FACDE904014349F1
:101330000889FFF720FA8046414A424BFFF706F939
:10134000CDE9000109F0A6FE04460D463B49498956
:101350004800FFF7FFF9064622462B46FFF7F6F84E
:10136000CDE90201DDE90423FFF7F0F8CDE908013A
:1013700032498889FFF7D4F9074630498889FFF751
:10138000CFF980462D49C889FFF7CAF981462E4911
:10139000FEF7BFFF06464146FEF7BBFF054639464E
:1013A000FEF7B7FF0446FFF76CFACDE90601DDE969
:1013B0000823FFF73DF98246FFF776FA23490860D4
:1013C00025E01E4909894800FFF7A1F907461B4996
:1013D0008889FFF7A5F9804618498889FFF7A0F9A1
:1013E00081461649C889FFF79BF982461649FEF7E0
:1013F00090FF06464946FEF78CFF05464146FEF73C
:1014000088FF04463946FEF7BAFF104908600B49C9
:10141000488AFFF785F904460D49FEF77AFF0D4922
:1014200008600649C88AFFF77BF904460A49FEF7B7
:1014300070FF0A4908600BB0BDE8F08F2803002058
:10144000477CD3625AE0263FFFEB2F2D3800002067
:1014500017B7D1387C000020CDCCCC3D80000020D7
:1014600070B50B49B1F900100A4AB2F90020881A88
:10147000FFF74DF904460848016808480068FEF780
:1014800048FF05462146FEF744FF0549086070BD48
:1014900034000020360000204400002048000020D6
:1014A0004C0000202DE9F0410C49888AFFF738F9FB
:1014B00006460A49088AFFF733F907460849FEF746
:1014C00028FF05463146FEF724FF04460549FEF78E
:1014D00056FF05490860BDE8F081000028030020A0
:1014E00017B7D13800C8AF484800002010B5FFF743
:1014F00011FFFFF7E9FEFFF7D5FF10BD2DE9F04F13
:1015000085B04FF00009CA4600260020049000274D
:101510008046002495E02046E11704EB9171891084
:10152000A4EB8101CDB2042C44DA7A484088012131
:10153000A94008423DD17748203050F825B000211D
:101540005846FFF7D7F901D8584601E08BF0004024
:101550000390714801680398FFF7C2F901D24FF078
:10156000000B701CC6B26D4850F824105846FEF7A8
:10157000D0FE51460390FEF774FE8246674850F84D
:1015800024104846FEF76DFE81466248103050F840
:1015900025100498FEF765FE04905E48001D405D2E
:1015A000384487B25B48083030F8150040441FFAD1
:1015B00080F844E05A4840880121A94008423ED1C1
:1015C0005748203050F825B000215846FFF792F9CF
:1015D00001D8584601E08BF0004003904E48016866
:1015E0000398FFF77DF901D24FF0000B701CC6B2D3
:1015F0004A4850F824105846FEF78BFE5146039097
:10160000FEF72FFE8246454850F824104846FEF764
:1016100028FE81464248103050F825100498FEF705
:1016200020FE04903E48001D405D384487B23C488F
:10163000083030F8150040441FFA80F800BF601CE5
:10164000C4B23848C088A0423FF765AF3548C0886B
:10165000B04206DD3448008840F00400324908807A
:1016600005E03148008820F004002F490880002E52
:1016700044DD2C4880784000029049465046FEF7F1
:101680007EFE0390294805680298FFF749F829462D
:1016900001900398FEF737FE00900199FEF76FFE68
:1016A00083462946FEF7DDFD0546204805603046A5
:1016B000FFF736F8834659460498FEF760FE03901C
:1016C0001B4805680298FFF72BF8294601900398FC
:1016D000FEF719FE00900199FEF751FE8346294658
:1016E000FEF7BFFD05461248056097FBF6F011496D
:1016F000087098FBF6F01049088008E000200B49BC
:1017000008600B4908600B4908700B49088005B058
:10171000BDE8F08FA80700208000002034B3000847
:10172000E0070020280300202200002028000020DD
:101730002C000020300000203200002008B50146B7
:101740000B466A461878D070587890709878507028
:10175000D8781070009808BD01460A465078137872
:1017600000EB032000B2704770B505460C462846D2
:10177000FFF7F2FF2071AD1C2846FFF7EDFF208137
:10178000AD1C2846FFF7DAFF20612D1D2846FFF724
:10179000D5FF20622D1D2846FFF7DEFF6071AD1CCE
:1017A0002846FFF7D9FF6081AD1C2846FFF7C6FF2A
:1017B00060612D1D2846FFF7C1FF60622D1D284680
:1017C000FFF7CAFFA071AD1C2846FFF7C5FFA08137
:1017D000AD1C2846FFF7B2FFA0612D1D2846FFF77C
:1017E000ADFFA0622D1D2846FFF7B6FFE071AD1CCE
:1017F0002846FFF7B1FFE081AD1C2846FFF79EFFAA
:10180000E0612D1D2846FFF799FFE0622D1D284657
:10181000FFF7A2FF2070AD1C2846FFF79DFF6080F8
:10182000AD1C2846FFF78AFF20632D1D2846FFF7D1
:1018300085FF60632D1D70BD10B546480078464990
:101840000978884232D043480078434908704148BB
:101850004078424908703F4880784149087006F056
:1018600051FB06F0DFF906F033F900213D4A116221
:1018700051629161D161116151613B4A11625162C2
:1018800000209061D061116151613848008840F0BA
:101890001000364908800846008840F02000088083
:1018A0000846008840F04000088052E0294840780F
:1018B0002A490978884228D0264840782749087064
:1018C000244880782649087006F0ACF906F000F943
:1018D0000021244A9161D161002010615061224AA7
:1018E0009061D061106150612048008840F0100084
:1018F0001E4908800846008840F0200008800846FD
:10190000008840F04000088023E0124880781449A5
:10191000097888421DD00F4880781149087006F078
:10192000D7F800210F4A1161516100200E4A106161
:1019300050610E48008840F010000C4908800846AD
:10194000008840F0200008800846008840F04000F1
:10195000088010BD060000205A0000205B00002017
:101960005C00002080030020B00300200C00002059
:10197000704700B5024605E04FF47A7000F005F8B4
:10198000501E82B2002AF7DC00BD14E000BF00BF89
:1019900000BF00BF00BF00BF00BF00BF00BF00BF4F
:1019A00000BF00BF00BF00BF00BF00BF00BF00BF3F
:1019B00000BF411E88B20028E8DC70474FF4FA707F
:1019C00003F0E6FC002000F0C5F81F4A1F4B20A1E1
:1019D000234806F029FB224945F2200000F0DEF9F9
:1019E0004FF4FA6003F0D4FC012000F0B3F829E0D2
:1019F0004FF4FA7003F0CCFC00F03CF81949088071
:101A00000846B0F90000401C06D0084600880128AE
:101A100002D0012000F09EF8134914480068FEF738
:101A200078FC0546FEF7C8FE04B221464FF480500C
:101A300000F00CF90E48016841F2020000F0D2F803
:101A400000F03CF9D4E70000CDCCCCCCCCCCF03FBE
:101A5000B3CCD0F2B0E6B1BE3A56252E32660000C5
:101A6000440700206C0000200000C8424400002011
:101A70003C00002010B54FF0FF3400201E490870D4
:101A80001E49087083211D4802780078401C1B4BBA
:101A900018701B4881540021184602780078401CB9
:101AA0001870174881541421184602780078401C99
:101AB0001870134881540122184601780078401CA0
:101AC00018700F484254184601780D4800F01CF871
:101AD000022003F05DFC0B4800785A2809D1094820
:101AE0004078A52805D107488078062801D1054807
:101AF000047A204610BD0000200000206A0000206B
:101B000020420020E006002070B506460C465A2010
:101B100000F010F8A52000F00DF8204600F00AF8BB
:101B2000002504E0705D00F005F8681CC5B2A54210
:101B3000F8DB70BD10B5044600BF8021044805F0F5
:101B4000DCFE0028F9D02146014805F0A4FF10BDB5
:101B5000004C004010B50446002020490870822146
:101B60001E4802780078401C1C4B18701C48815499
:101B70000022184601780078401C1870184842541A
:101B80008422184601780078401C1870144842548A
:101B90005A22184601780078401C187010484254A8
:101BA0000121184602780078401C18700C488154B6
:101BB0000021184602780078401C187008488154AB
:101BC000184601780078401C1A46107004484454A6
:101BD000104601780248FFF797FF10BD6A00002009
:101BE0002042002070B504460D46002015490870BB
:101BF0008221144802780078401C124B1870124859
:101C000081542112184602780078401C18700E4842
:101C10008154184602780078401C18700A48845491
:101C200001461A4612788818294600F0BBFA054882
:101C30000078001D03490870084601780248FFF744
:101C400063FF70BD6A0000202042002070B504468A
:101C50000D46002017490870822116480278007846
:101C6000401C144B187014488154211218460278F5
:101C70000078401C1870104881541846027800788B
:101C8000401C18700C488454C5F30721184602788C
:101C90000078401C18700848815418460278007873
:101CA000401C187004488554184601780248FFF714
:101CB0002BFF70BD6A0000202042002010B50020DC
:101CC000334908708221324802780078401C304B3A
:101CD0001870304881540022184601780078401C62
:101CE00018702C4842541021184602780078401C85
:101CF00018702848815428480178184602780078DE
:101D0000401C1870234881542348427818460178B3
:101D10000078401C18701F4842541F4881781846AC
:101D200002780078401C18701A4881540021184627
:101D300002780078401C1870164881541648C17803
:101D4000184602780078401C1870124881541248D6
:101D50000179184602780078401C18700D488154AB
:101D60000D484279184601780078401C18700948DF
:101D700042540021184602780078401C187005482B
:101D80008154184601780348FFF7BEFE10BD0000DD
:101D90006A000020204200200600002070B50546A1
:101DA0000C460020164908708221154802780078F8
:101DB000401C134B1870134881542912184602789E
:101DC0000078401C18700F4881541846027800783B
:101DD000401C18700B48855409E0217808480278A7
:101DE0000078401C064B187006488154641C20780B
:101DF0000028F2D1024801780248FFF785FE70BD45
:101E00006A000020204200201CB50224B448B0F92A
:101E10000000962806DAB348007818B90120B149C5
:101E200008700124AE48B0F90000962806DDAD48E0
:101E3000007818B10020AB4908700024022C1FD094
:101E4000A948016800918088ADF804008DF806402B
:101E5000A6490979C1EBC10141F2707288180722C5
:101E6000694605F077FEA1480079401C00F00F009C
:101E70009E4908719E48008840F400709C49088083
:101E800002249C48007800F00400042806D19A48F7
:101E9000007818B901209849087001249548007805
:101EA00010F0040F06D19448007818B10020924930
:101EB00008700024022C1ED08B4801680091808895
:101EC000ADF804008DF8064088494979C1EBC1019D
:101ED00001F5BF500722694605F03CFE8348407972
:101EE000401C00F00F00814948718148008840F48F
:101EF00000707F4908800224002180480068FEF7B6
:101F0000EFFC06D27E48007818B901207C490870A1
:101F10000124002179480068FEF7ECFC06D27848DD
:101F2000007818B10020764908700024022C1FD0D8
:101F30006D48016800918088ADF804008DF8064076
:101F40006A498979C1EBC10141F65002881807221C
:101F5000694605F0FFFD65488079401C00F00F00E0
:101F6000624988716248008840F4007060490880C6
:101F700002246448816B64480068FEF7BBFC06D20B
:101F80006248007818B901206049087001245D4852
:101F9000816B5D480068FEF7A3FC06D25B480078C1
:101FA00018B10020594908700024022C1ED04E4858
:101FB000016800918088ADF804008DF806404B4917
:101FC000C979C1EBC10101F5C6500722694605F088
:101FD000C1FD4648C079401C00F00F004349C8715C
:101FE0004348008840F40070414908800224454875
:101FF000C16B45480068FEF773FC06D24448007880
:1020000018B901204249087001243E48C16B3E487E
:102010000068FEF76FFC06D23D48007818B100203A
:102020003B4908700024022C1FD02F480168009102
:102030008088ADF804008DF806402C49097AC1EB80
:10204000C10141F6301288180722694605F082FD69
:102050002648007A401C00F00F00244908722448EA
:10206000008840F40070224908800224214800784A
:1020700010F0200F06D02748007818B90120254914
:10208000087001241B48007810F0200F06D1214869
:10209000007818B100201F4908700024022C1ED0BF
:1020A0001148016800918088ADF804008DF8064061
:1020B0000E49497AC1EBC10101F5CD5007226946AD
:1020C00005F048FD0948407A401C00F00F00074920
:1020D00048720748008840F40070054908801CBD1C
:1020E0000E0000207400002006000020E003002005
:1020F0000C00002022000020750000203C00002081
:1021000076000020280300204400002077000020F3
:10211000780000207900002070B50024082515E023
:102120004FF400510B4800F0DFF86006040E4FF446
:102130008041084800F0CFF808B144F001044FF4A2
:102140000051044800F0D2F8681EC5B2002DE7DC4B
:10215000204670BD000C014070B5044608251BE008
:1021600014F0800F05D04FF400410D4800F0BEF888
:1021700004E04FF400410A4800F0B6F84FF4005173
:10218000074800F0B1F86006040E4FF4005104480F
:1021900000F0ACF8681EC5B2002DE1DC70BD000097
:1021A000000C014003B5024601A9CB7813708B786F
:1021B00053704B7893700B78D3700CBD2DE9F041C0
:1021C000024600250026002000230024002791F865
:1021D00003C00CF00F0591F803C01CF0100F03D0E2
:1021E00091F802C04CEA050591F800C0BCF1000F5F
:1021F00031D0146800202BE04FF0010C0CFA00F3F2
:10220000B1F800C00CEA03069E4220D183004FF0D3
:102210000F0C0CFA03F7BC4305FA03FC4CEA040468
:1022200091F803C0BCF1280F06D14FF0010C0CFA55
:1022300000FCC2F814C00AE091F803C0BCF1480FDA
:1022400005D14FF0010C0CFA00FCC2F810C0401C84
:102250000828D1D31460B1F800C0BCF1FF0F34DD01
:10226000546800202EE000F1080C4FF0010808FA35
:102270000CF3B1F800C00CEA03069E4221D18300A2
:102280004FF00F0C0CFA03F7BC4305FA03FC4CEAC1
:10229000040491F803C0BCF1280F05D100F1080C2B
:1022A00008FA0CF8C2F8148091F803C0BCF1480F8A
:1022B00007D100F1080C4FF0010808FA0CF8C2F839
:1022C0001080401C0828CED35460BDE8F081014640
:1022D000886880B270470246002093680B4201D0A4
:1022E000012000E0002070474161704701617047A4
:1022F0002DE9F04F8FB00020954908700122084663
:1023000001780078401C924B187092484254032187
:10231000184602780078401C18708E488154014697
:102320001A4612788818002100F044FA884800788C
:10233000801C874908708749854A127888181E21B1
:1023400000F038FA82480078801C814908700846FD
:1023500001788048FEF75EFF00907E497C4A127843
:102360008818009900F026FA79480078801C78498E
:10237000087005F0D7F8FEF71FFE00287ED0002079
:10238000754908707548008820F00100734908807D
:1023900001A97348FFF7E8F97249B1F91800FEF78F
:1023A000D9F980460022704BFEF742F906460F46E7
:1023B0000998FEF766FA824632463B46FEF71FF85A
:1023C0000446FEF771FA09906649B1F91A00FEF762
:1023D000C1F980460022644BFEF72AF904460D46F7
:1023E0000A98FEF74EFA064622462B46FEF707F8F5
:1023F0008246FEF759FA0A905A49B1F91C00FEF7D5
:10240000A9F980460022584BFEF712F904460D4602
:102410000B98FEF736FA064622462B46FDF7EFFFED
:102420008246FEF741FA0B904E49B1F91E00FEF7C5
:1024300091F9804600224C4BFEF7FAF804460D460F
:102440000C98FEF71EFA064622462B46FDF7D7FFEC
:102450008246FEF729FA0C904249B1F92800FEF7AE
:1024600079F980460022414BFEF7E2F806460F4616
:102470000D98FEF706FA8246324600E052E03B46EF
:10248000FDF7BDFF0446FEF70FFA0D903549B1F98F
:102490002A00FEF75FF906460022344BFEF7C8F823
:1024A00082468B460E98FEF7ECF9044652465B4690
:1024B000FDF7A5FF8046FEF7F7F90E900D98FEF7A1
:1024C000E0F906460022294BFEF740F80446FEF7E5
:1024D000A0F900B2264908800E98FEF7D2F9064608
:1024E0000022224BFEF732F80446FEF792F900B2C2
:1024F00020490880382201A91F48FDF787FE1E48A1
:10250000408810F4407F06D01448008840F0200036
:102510001249088019E01148008820F020000F4976
:10252000088012E00C480078401C0B4908700846EF
:102530000078052809DD0948008840F001000749B6
:1025400008804FF6FF700C4948800FB0BDE8F08F4F
:1025500014000020EC0300206E0000202200002068
:1025600053040020280300200000244000005940AC
:102570003400002036000020A80700202DE9F04F8D
:102580008FB0002066490870012208460178007863
:10259000401C634B1870634842540321184602786C
:1025A0000078401C18705F48815401461A46127822
:1025B0008818002100F0FEF859480078801C58491E
:1025C00008705849564A127888181E2100F0F2F80F
:1025D00053480078801C52490870084601785148D9
:1025E000FEF718FE00904F494D4A1278881800995E
:1025F00000F0E0F84A480078801C4949087004F06F
:10260000ABFFFEF749FD002873D000204649087053
:102610004648008820F002004449088001A9444847
:10262000FFF7A2F84349B1F92000FEF793F882467C
:102630000022414BFDF7FCFF06460F460998FEF7C6
:1026400020F9804632463B46FDF7D9FE0446FEF7A8
:102650002BF909903749B1F92200FEF77BF80646BD
:102660000022354BFDF7E4FF804689460A98FEF7C5
:1026700008F9044642464B46FDF7C1FE8246FEF786
:1026800013F90A902B49B1F92400FEF763F880464C
:102690000022294BFDF7CCFF04460D460B98FEF7B0
:1026A000F0F8064622462B46FDF7A9FE8246FEF7C5
:1026B000FBF80B901F49B1F92600FEF74BF8804656
:1026C00000221D4BFDF7B4FF04460D460C98FEF7A3
:1026D000D8F8064622462B46FDF791FE8246FEF7C5
:1026E000E3F80C90382201A91448FDF78FFD13E0A0
:1026F000FFE70D480078401C0B4908700846007839
:10270000052809DD0948008840F0020007490880D3
:102710004FF6FF70094948800FB0BDE8F08F000008
:1027200018000020B40400206F00002022000020C8
:102730001B0500202803002000002440E0070020A3
:1027400010B5022301220A210A48FEF7F1FA0121FD
:102750000848FEF74EFB0720FFF717F90548FEF77C
:10276000B0FAC0EB0010792190FBF1F0C01C00B270
:1027700010BD0000002401400C48007810F0080F44
:1027800012D00A48183800780007000D0749091FC1
:10279000097840EAD1000549097801F007010122D2
:1027A00002EB4111084370470020FCE7E8FF0FE00F
:1027B00000BFFEE702460B12137051707047000015
:1027C00008B50121042003F07BFA0121082003F061
:1027D00077FA0121102003F073FA0121202003F081
:1027E0006FFA40F6B210ADF8000010208DF803002B
:1027F00001208DF8020069464B48FFF7DFFC4FF4DB
:1028000000614948FFF770FD02214748FFF76CFD62
:102810004FF480714448FFF769FD4FF40170ADF843
:10282000000001208DF8020018208DF80300694691
:102830003D48FFF7C3FC41F24940ADF800000420D9
:102840008DF8030069463848FFF7B8FC4BF28E104C
:10285000ADF8000010208DF8030001208DF8020073
:1028600069463248FFF7AAFC40F20140ADF800008B
:1028700001208DF8020018208DF8030069462B48CE
:10288000FFF79CFC4FF49040ADF8000004208DF859
:10289000030069462548FFF791FCC020ADF8000011
:1028A00001208DF8020014208DF8030069461F48AE
:1028B000FFF784FC0120ADF8000000208DF8030034
:1028C00069461B48FFF77AFC2C20ADF80000012078
:1028D0008DF8020010208DF8030069461448FFF7B8
:1028E0006DFC4FF43C60ADF8000004208DF803004F
:1028F00069460F48FFF762FC4FF4A050ADF80000A6
:1029000001208DF8020018208DF803006946084860
:10291000FFF754FC0420ADF800008DF80300694671
:102920000448FFF74BFC08BD00080140000C0140C3
:1029300000100140001401404CF6CC4001490860F1
:1029400070470000003000404AF6AA2001490860A4
:10295000704700000030004045F2555000F018F874
:10296000002000F009F8642000F00CF8FFF7ECFFFD
:10297000FFF7E2FF00BFFEE7014948607047000033
:10298000003000400149886070470000003000407E
:1029900001490860704700000030004030B589B040
:1029A0000446FF220021092000F084FCC5B215B1C5
:1029B000284609B030BD0122102105A800F03AFCDC
:1029C00008B10120F5E7FF2200210A2000F072FC87
:1029D000C5B20DB12846ECE70122102101A800F094
:1029E00029FC08B10220E4E79DF81400800920705A
:1029F0009DF81400C0F3830060709DF8140000F08F
:102A00000300A0709DF81500E0709DF8160020717D
:102A10009DF8170060719DF818000001E080E088C3
:102A20009DF8191040EA1110E0809DF8190000F09F
:102A30000F0020729DF81A00C00960729DF81A00FC
:102A4000C0F38010A0729DF81A00C0F34010E0722D
:102A50009DF81A00C0F300102073002060739DF8E9
:102A60001A008007000D206120699DF81B1040EAC4
:102A70008100206120699DF81C1040EA91102061BE
:102A80009DF81C00C0F3C20020759DF81C0000F0EA
:102A9000070060759DF81D004009A0759DF81D0098
:102AA000C0F38200E0759DF81D008007400F20767E
:102AB000207E9DF81E1040EAD11020769DF81E0061
:102AC000C0F3840060769DF81E008007C00EA076DB
:102AD000A07E9DF81F1040EA5110A0769DF81F00BF
:102AE00000F01F00E0769DF82000C00920779DF8D7
:102AF0002000C0F3411060779DF82000C0F38200F1
:102B0000A0779DF820008007000FE077E07F9DF818
:102B1000211040EA9110E0779DF82100C0F34010A9
:102B200084F82000002084F821009DF8210000F0A6
:102B3000010084F822009DF82200C00984F82300D7
:102B40009DF82200C0F3801084F824009DF8220034
:102B5000C0F3401084F825009DF82200C0F3001057
:102B600084F826009DF82200C0F3810084F8270035
:102B70009DF8220000F0030084F828009DF823004F
:102B8000400884F82900012084F82A0094F84E00B7
:102B9000042808D19DF81C000002206120699DF8DE
:102BA0001D10084420612069C00460644FF4007067
:102BB000A0649DF8040084F82C009DF80500010233
:102BC000E185E08D9DF806100843E0859DF807003B
:102BD00001062163206B9DF8081040EA0141216342
:102BE000206B9DF8091040EA01212163206B9DF8BC
:102BF0000A10084320639DF80B10342001559DF8FE
:102C00000C10352001559DF80D000106A163A06B45
:102C10009DF80E1040EA0141A163A06B9DF80F10D2
:102C200040EA0121A163A06B9DF810100843A06346
:102C30003C20005D9DF8111040EA11113C20015527
:102C40009DF811000007010DE187E08F9DF812103B
:102C50000843E0879DF813004108402001550121F9
:102C6000412001550020A4E67CB500200090019091
:102C70008F48006810F0010F02D04FF0FF307CBD8C
:102C8000002401E0601C84B2FF2CFBDD002404E082
:102C9000FF2000F085FB601C84B20A2CF8DB0024C6
:102CA0000BE095220021084600F004FBC5B2012D7F
:102CB00001D1002405E0601C84B240F6FF7084421C
:102CC000EFDB00BFA4F57060FF3801D10120D6E72B
:102CD00087224FF4D571082000F02AFBC5B2052DDC
:102CE0005DD10120734981F84E00102070490831F0
:102CF0000860FF2000F054FB002414E0002211467D
:102D0000372000F0D7FAC5B2012D01D02846B6E72A
:102D100000221146292000F0CDFAC5B20DB90024D9
:102D200005E0601C84B240F6FF708442E6DB00BF21
:102D3000A4F57060FF381BD100240AE00022114680
:102D4000012000F0B7FAC5B20DB9002405E0601CFF
:102D500084B240F6FF708442F0DB00BFA4F57060DF
:102D6000FF3801D102208AE70020524981F84E0045
:102D7000012000F003F9012200213B2000F09AFA23
:102D8000C5B20DB128467AE7FF224FF4007110203A
:102D900000F090FAC5B2002D7DD028466FE7012DD6
:102DA00079D1FF2000F0FCFAC0B28DF80000FF20BE
:102DB00000F0F6FAC0B28DF80100FF2000F0F0FA42
:102DC000C0B28DF80200FF2000F0EAFAC0B28DF820
:102DD00003001020364908310860FF2000F0E0FAB7
:102DE0009DF80200012861D19DF80300AA285DD159
:102DF000002415E000221146372000F05BFAC5B22E
:102E0000012D01D028463AE700224FF080412920C9
:102E100000F050FAC5B20DB9002405E0601C84B280
:102E200040F6FF708442E5DB00BFA4F57060FF3818
:102E300001D1032023E7002211463A2000F078FA5E
:102E4000C5B20DB128461AE7FF2000F0A9FAC0B2BA
:102E50008DF80000FF2000F0A3FAC0B28DF8010049
:102E6000FF2000F09DFAC0B28DF80200FF2000F0B4
:102E700097FAC0B28DF8030010200D4908310860A0
:102E8000FF2000F08DFA9DF8000010F0400F06D0F2
:102E90000420084900E009E081F84E0003E0022028
:102EA000044981F84E00012000F068F80020E6E6B1
:102EB000080801405C4C00202DE9F04105460E4613
:102EC00017461B4890F84E00042800D06D020022DF
:102ED0002946122000F0EEF900F0FF08B8F1000FCB
:102EE00002D00120BDE8F081002412E006EB44206E
:102EF00000224FF4007100F09DF948B10022114604
:102F00000C2000F0D7F910200A4908600220E9E7F8
:102F1000641CBC42EAD3002211460C2000F0CAF91E
:102F2000102004490860FF2000F03AFA0020D9E799
:102F30005C4C00201008014070B504460E460E4857
:102F400090F84E00042800D064020022214611208F
:102F500000F0B0F9C5B20DB1012070BD01225102DF
:102F6000304600F067F9C5B2002211460C2000F08F
:102F7000A1F92846F1E700005C4C002010B586B0AE
:102F800004460020ADF804004FF48270ADF806004E
:102F90000020ADF808000220ADF80A000120ADF8CD
:102FA0000C004002ADF80E000020ADF81200072022
:102FB000ADF814001CB93820ADF8100002E0102064
:102FC000ADF8100001A9024803F076FB06B010BD71
:102FD0000030014008B50121080302F071FE012113
:102FE000052002F06DFEE020ADF8000003208DF812
:102FF000020018208DF8030069461448FFF7DEF838
:103000001020ADF8000003208DF8020010208DF88C
:10301000030069460D48FFF7D1F80120ADF8000024
:1030200003208DF8020048208DF803006946074808
:10303000FFF7C4F810200549103108600020FFF7A1
:103040009DFF0121024803F02BFB08BD0008014051
:10305000003001402DE9F04705460E46174641482D
:1030600090F84E00042800D06D023E4890F84E00C3
:1030700020B100223946172000F01CF90022294611
:10308000192000F017F9C4B214B10120BDE8F0878F
:10309000102035490860FF2000F082F94FF0000849
:1030A0003AE0FC2000F07CF94FF0000907E016F848
:1030B000010B00F075F909F101001FFA80F9B9F56B
:1030C000007FF4DBFF2000F06BF9FF2000F068F9CF
:1030D000FF2000F065F9C4B204F01F00052805D0F8
:1030E00010202149091F08600220CFE74FF0000A95
:1030F0000BE050460AF1010AB0F5802F05D11020EF
:103100001949091F08600320C0E7FF2000F048F9B3
:10311000FF28EED108F10108B845C2D3FD2000F028
:103120003FF9C4B20CB90420B0E74FF0000A0BE03D
:1031300050460AF1010AB0F5802F05D110200A4946
:10314000091F08600520A1E7FF2000F029F9FF28EA
:10315000EED110200449091F0860FF2000F020F97B
:10316000002093E75C4C0020140801402DE9F04159
:1031700004460D462D4890F84E00042800D0640205
:1031800000222146182000F095F8C6B216B10120A1
:10319000BDE8F081102026490860FF2000F000F90A
:1031A000FF2000F0FDF8FF2000F0FAF8FE2000F00C
:1031B000F7F8002705E015F8010B00F0F1F8781C8E
:1031C00087B2B7F5007FF6DBFF2000F0E9F8FF20BB
:1031D00000F0E6F8FF2000F0E3F8C6B206F01F00AA
:1031E000052805D010201249091F08600220CFE7EA
:1031F0004FF000080BE0404608F10108B0F5802FC1
:1032000005D110200A49091F08600320C0E7FF20EC
:1032100000F0C6F80028EED010200549091F08600C
:10322000FF2000F0BDF80020B2E700005C4C002059
:10323000140801402DE9F04105460E4617461020BE
:103240001B49086000240BE0FF2000F0A9F800F003
:10325000FF08B8F1FE0F01D1002404E0601C84B225
:10326000B4F5FA6FF0DB00BFB4F5FA6F06D11020A9
:103270000F49091F08600120BDE8F081002405E026
:10328000FF2000F08DF82855601C84B2B442F7DBB3
:10329000FF2000F085F8FF2000F082F837B1102001
:1032A0000349091F0860FF2000F07AF80020E3E7D7
:1032B000140801402DE9F04106460C461746FF2050
:1032C00000F06EF810201949086046F0400000F048
:1032D00067F8200E00F064F8C4F3074000F060F8CF
:1032E000C4F3072000F05CF8E0B200F059F838466B
:1032F00000F056F84FF000080AE0FF2000F050F808
:10330000C5B2FF2D00D006E008F1010000F0FF0873
:10331000B8F1C80FF1DB00BF10200449091F086095
:10332000FF2000F03DF82846BDE8F0811408014078
:103330002DE9F04106460C461746FF2000F030F814
:1033400010201649086046F0400000F029F8200ED1
:1033500000F026F8C4F3074000F022F8C4F3072079
:1033600000F01EF8E0B200F01BF8384600F018F844
:103370004FF000080AE0FF2000F012F8C5B2FF2D60
:1033800000D006E008F1010000F0FF08B8F1C80F16
:10339000F1DB00BF2846BDE8F081000014080140C1
:1033A000014600BF0748008910F0020FFAD0054817
:1033B000818100BF0348008910F0010FFAD0014855
:1033C000808970470030014003B58BB00C9809909C
:1033D0000B9865287DD067DC7CD2DFE810F0D80040
:1033E000E400EA00FA0006011B0136013C013D0140
:1033F000430144014A014B01500155015B01600149
:1034000076017B007B007B007B007C0194019501B1
:10341000AD01AE01C701C801E201E301FD01FE01FA
:10342000180219023302340239023E0257025802CE
:10343000720273028D028E02A802A902C302C402A4
:10344000CC02FF0207030F0317031F037B002703B0
:103450002F0337033F0347037B004C0354037B00D8
:103460005C03640365036D037B007B007B007B00D2
:103470007B007B007B007B007B007B007B007B0074
:103480007B007B007B007B007B007B007B006E036E
:103490007303780381038A03930398039D03A203B4
:1034A000B703B803BD03D003DF2875D046DCCC28B2
:1034B00073D02CDCAD2871D016DC98286FD00ADCD4
:1034C00066286DD067286CD096286BD0972801D1DC
:1034D00090E359E388E0992874D0AA2873D0AB28E8
:1034E00072D0AC28F3D1AFE3C8286ED008DCAE2888
:1034F0006CD0AF286BD0B0286AD0B128E7D1D0E328
:10350000C9286FD0CA286ED0CB28E0D1EAE3CD38E5
:10351000122869D2DFE810F0EF03F003F80300048B
:1035200008040904110412041A0422042A042B04B6
:10353000340435043D0445044D044E04E038242889
:10354000E7D2DFE810F04B0453045B046304640427
:103550006C046D0475047D04850486048E048F0458
:1035600097049F04A704A804B004B104B904C104DB
:10357000C904CA04D204D304DB04E304EB04EC045E
:10358000F404F504FD0405050D050E0516050021DE
:103590000998FFF70FF928E2F1E3A4E35DE331E3D3
:1035A000FAE20EE31EE3F84801780998FFF702F902
:1035B000F1E7F648008880B2014608900998FFF7C5
:1035C000F9F8E8E726E32DE335E373E34EE356E34A
:1035D0005EE3EF48008880B2014608900998FFF743
:1035E000E9F8D8E76EE375E3F6E3EA480068FDF72B
:1035F00048F90022E84BCDE90401FCF7A7FFCDE92B
:103600000601FDF725F980B2014608900998FFF7F9
:10361000D1F8C0E7E1480068FDF733F90022E04B3C
:10362000CDE90201FCF792FF0022DE4BCDE9040157
:10363000FCF7E5FECDE90601FDF7EBF880B20146A7
:1036400008900998FFF7B6F8A5E7D74801680998E8
:10365000FEF7A8FD9FE79EE7D44801680998FEF7AA
:10366000A1FD98E797E7D24801680998FEF79AFD0F
:1036700091E790E700210998FFF79CF88BE700217C
:103680000998FFF797F886E7CA4801880998FFF775
:1036900091F880E769210998FFF78CF87BE7C64825
:1036A000B0F90000FDF756F80022BD4BCDE904014A
:1036B000FCF74CFFCDE90601FDF7CAF880B20146E0
:1036C00008900998FFF776F865E7BC4801880998E3
:1036D000FFF770F85FE7BA4800680290FDF717F847
:1036E0000390FDF7CEF80022B64BCDE90401FCF7BC
:1036F0009FFFCDE90601FDF7D7F80146089009982C
:10370000FEF750FD47E746E7AD4840680290FCF7FA
:10371000FEFF0390FDF7B5F80022AA4BCDE90401A6
:10372000FCF786FFCDE90601FDF7BEF801460890DB
:103730000998FEF737FD2EE72DE7A34903C9CDE928
:103740000001FCF7F2FF0390FDF79BF800229F4B6E
:10375000CDE90401FCF76CFFCDE90601FDF7A4F803
:10376000014608900998FEF71DFD14E713E79649F6
:10377000D1E90201CDE90001FCF7D7FF0390FDF785
:1037800080F80022914BCDE90401FCF751FFCDE90F
:103790000601FDF789F8014608900998FEF702FD39
:1037A000EDE3ECE38849D1E90401CDE90001FCF740
:1037B000BCFF0390FDF765F80022844BCDE90401BE
:1037C000FCF736FFCDE90601FDF76EF801460890DB
:1037D0000998FEF7E7FCD2E3D1E37B49D1E9060182
:1037E000CDE90001FCF7A1FF0390FDF74AF80022A4
:1037F000764BCDE90401FCF71BFFCDE90601FDF78F
:1038000053F8014608900998FEF7CCFCB7E3B6E3FD
:103810006D49D1E90801CDE90001FCF786FF03906D
:10382000FDF72FF80022694BCDE90401FCF700FFFA
:10383000CDE90601FDF738F8014608900998FEF732
:10384000B1FC9CE39BE300210998FEF7B3FF96E3EC
:1038500000210998FEF7AEFF91E35D4903C9CDE968
:103860000001FCF762FF0390FDF70BF80022594BB3
:10387000CDE90401FCF7DCFECDE90601FDF714F803
:10388000014608900998FEF78DFC78E377E35049EC
:10389000D1E90201CDE90001FCF747FF0390FCF7F5
:1038A000F0FF00224B4BCDE90401FCF7C1FECDE94E
:1038B0000601FCF7F9FF014608900998FEF772FC33
:1038C0005DE35CE34249D1E90401CDE90001FCF785
:1038D0002CFF0390FCF7D5FF00223E4BCDE90401FD
:1038E000FCF7A6FECDE90601FCF7DEFF01460890D5
:1038F0000998FEF757FC42E341E33549D1E9060157
:10390000CDE90001FCF711FF0390FCF7BAFF00229C
:10391000304BCDE90401FCF78BFECDE90601FCF745
:10392000C3FF014608900998FEF73CFC27E326E315
:103930002749D1E90801CDE90001FCF7F6FE039023
:10394000FCF79FFF0022234BCDE90401FCF770FE3A
:10395000CDE90601FCF7A8FF014608900998FEF79B
:1039600021FC0CE30BE31C48C08801460890099831
:10397000FEF720FF03E318480079014608900998F4
:10398000FEF718FFFBE200003000002034000020AA
:10399000360000202C0000200000594028000020A4
:1039A000000024400000E03F3C00002044000020D4
:1039B0004C000020120000200E00002022000020F9
:1039C000700300200020AC408003002080842E4142
:1039D000B003002040774B4128030020F94840798C
:1039E000014608900998FEF7E5FEC8E2F54800890F
:1039F000014608900998FEF7DDFEC0E2F1484089D3
:103A0000014608900998FEF7D5FEB8E2ED48808996
:103A1000014608900998FEF7CDFEB0E2E948C0895A
:103A2000014608900998FEF7C5FEA8E2E548C08A5D
:103A3000014608900998FEF7BDFEA0E2E148408AE1
:103A4000014608900998FEF7B5FE98E2DD48008A25
:103A5000014608900998FEF7ADFE90E2D948808AA9
:103A6000014608900998FEF7A5FE88E20021099812
:103A7000FEF7A0FE83E2D3488078014608900998BB
:103A8000FEF798FE7BE2CF48C0780146089009987F
:103A9000FEF790FE73E2CB48806B014608900998D0
:103AA000FEF780FB6BE26AE2C648C06B01460890F5
:103AB0000998FEF777FB62E261E200210998FEF7C0
:103AC00079FE5CE200210998FEF774FE57E2BE48D9
:103AD000017809980170BC484178099841704EE21C
:103AE000B948817809980170B748C1780998417040
:103AF00045E2B548017909980170B34841790998C0
:103B000041703CE200210998FEF754FE37E20021A3
:103B10000998FEF74FFE32E200210998FEF74AFEAF
:103B20002DE2A848406B4FF6FF7101EA20400146A4
:103B300008900998FEF73EFEA248808E80B20146AA
:103B400008900998801CFEF735FE18E217E2002164
:103B50000998FEF72FFE12E29A48B0F928000A21D0
:103B600090FBF1F0C1B2099801709648B0F92A00B3
:103B70000A2190FBF1F0C1B209984170FFE10021E8
:103B80000998FEF717FEFAE18E4800780146089082
:103B90000998FEF70FFEF2E18A484078032190FB76
:103BA000F1F101208840C0EB001000EB80004FF6DF
:103BB000FF7101EA0010014608900998FEF7FAFD2E
:103BC000DDE1824803F07BFA814909880D314843E1
:103BD0007F49088008460088014608900998FEF74A
:103BE000E9FDCCE17748008E014608900998FEF780
:103BF000E1FDC4E17348408E014608900998FEF744
:103C0000D9FDBCE16F48808D014608900998FEF708
:103C1000D1FDB4E16B48C08D014608900998FEF7CC
:103C2000C9FDACE16748008B80B201460890099855
:103C3000FEF7C0FDA3E16348408B80B201460890C7
:103C40000998FEF7B7FD9AE15E48808B80B2014685
:103C500008900998FEF7AEFD91E15A48C08B80B2FA
:103C6000014608900998FEF7A5FD88E15548008CAB
:103C700080B2014608900998FEF79CFD7FE151480B
:103C8000408C80B2014608900998FEF793FD76E1DA
:103C90004C48808C80B2014608900998FEF78AFD56
:103CA0006DE14848C08C80B2014608900998FEF743
:103CB00081FD64E147480079014608900998FEF7C4
:103CC00079FD5CE143480089014608900998FEF7B8
:103CD00071FD54E13F480069014608900998FEF7DC
:103CE00061FA4CE14BE13B48006A014608900998B3
:103CF000FEF758FA43E142E1364840790146089020
:103D00000998FEF757FD3AE132484089014608908C
:103D10000998FEF74FFD32E12E48406901460890B0
:103D20000998FEF73FFA2AE129E12A48406A01464C
:103D300008900998FEF736FA21E120E125488079BC
:103D4000014608900998FEF735FD18E12148808961
:103D5000014608900998FEF72DFD10E11D48806985
:103D6000014608900998FEF71DFA08E107E1194895
:103D7000806A014608900998FEF714FAFFE02CE0EB
:103D8000FDE01448C079014608900998FEF712FD3D
:103D9000F5E01048C089014608900998FEF70AFD31
:103DA000EDE00C48C069014608900998FEF7FAF961
:103DB000E5E0E4E00748C06A014608900998FEF78C
:103DC000F1F9DCE028030020060000200008004094
:103DD00056000020A8070020CCE0D0E06948007819
:103DE000014608900998FEF7E5FCC8E06548408860
:103DF000014608900998FEF7DDFCC0E06148006BC1
:103E0000014608900998FEF7CDF9B8E0B7E05D48A3
:103E1000406B014608900998FEF7C4F9AFE0AEE0A8
:103E200059480079014608900998FEF7C3FCA6E0BE
:103E300055480089014608900998FEF7BBFC9EE0B2
:103E400051480069014608900998FEF7ABF996E0E1
:103E500095E04D48006A014608900998FEF7A2F9DE
:103E60008DE08CE048484079014608900998FEF7BB
:103E7000A1FC84E044484089014608900998FEF777
:103E800099FC7CE040484069014608900998FEF79B
:103E900089F974E073E03C48406A0146089009984B
:103EA000FEF780F96BE06AE03748807901460890B8
:103EB0000998FEF77FFC62E033488089014608904C
:103EC0000998FEF777FC5AE02F4880690146089070
:103ED0000998FEF767F952E051E02B48806A0146E5
:103EE00008900998FEF75EF949E048E02648C07955
:103EF000014608900998FEF75DFC40E02248C08921
:103F0000014608900998FEF755FC38E01E48C06944
:103F1000014608900998FEF745F930E02FE01A486D
:103F2000C06A014608900998FEF73CF927E026E0B0
:103F300015480078014608900998FEF73BFC1EE002
:103F400011484088014608900998FEF733FC16E0B6
:103F50000D48006B014608900998FEF723F90EE022
:103F60000DE00948406B014608900998FEF71AF9E0
:103F700005E004E000210998FEF71CFC00BF00BF2B
:103F80000DB000BDA8070020E00700202DE9F05F7C
:103F900081468A465446A9F114009E2800D200E0CA
:103FA000FEE383007B445B689F44000078020000CE
:103FB0008002000088020000AA020000AC0200009B
:103FC000CE020000D0020000F6020000F80200005D
:103FD0001E03000020030000460300004803000009
:103FE0006E030000700300009603000098030000B9
:103FF000A0030000A8030000CE030000D0030000CF
:10400000F6030000F80300001E0400002004000076
:1040100046040000480400006E0400007004000024
:1040200088040000A0040000B8040000D0040000D0
:10403000E804000000050000EC090000180500007D
:10404000300500004805000060050000780500000C
:10405000EC09000080050000B2050000EC0900003A
:10406000D6050000EE050000F0050000080600007F
:10407000EC090000EC090000EC090000EC0900006C
:10408000EC090000EC0900000A060000240600000C
:104090003E0600005806000072060000A40600005C
:1040A000EC090000BE060000D8060000F40600007F
:1040B00010070000EC090000EC0900002A070000CE
:1040C000320700003A070000520700006A070000AC
:1040D000820700008A070000920700009A0700008C
:1040E000C8070000CA070000D207000060080000EF
:1040F0006808000080080000EC090000EC090000DE
:10410000EC090000EC090000EC090000EC090000DB
:10411000EC090000EC090000EC090000EC090000CB
:10412000EC090000EC090000EC090000EC090000BB
:10413000EC090000EC090000EC090000EC090000AB
:10414000EC090000EC090000EC090000EC0900009B
:10415000EC090000EC090000EC090000EC0900008B
:10416000EC090000EC090000EC090000EC0900007B
:10417000EC090000EC090000EC090000EC0900006B
:10418000EC090000EC090000EC090000EC0900005B
:10419000EC090000EC090000EC090000EC0900004B
:1041A000EC090000EC090000EC090000EC0900003B
:1041B000EC090000CC080000E4080000FC08000046
:1041C00014090000EC090000EC090000EC090000F3
:1041D000EC090000EC090000EC090000EC0900000B
:1041E000EC090000EC090000EC090000EC090000FB
:1041F000EC090000EC090000EC090000EC090000EB
:10420000EC0900002C090000440900005C090000D2
:10421000740900008C090000A4090000BC0900001A
:10422000D40900002046FDF797FAB6E32046FDF7D3
:1042300093FAB2E32046FDF781FA8346FCF721FBAF
:1042400007460022FC4BFCF781F90546FCF7E1FA32
:10425000FA490860A1E3A0E32046FDF76FFA834620
:10426000FCF70FFB05460022F34BFCF76FF90746FE
:10427000FCF7CFFAF14948608FE38EE32046FDF763
:104280005DFA05460021FCF72BFB09D10021EC4A21
:1042900011605160EB48008840F02000E949088037
:1042A0007BE37AE32046FDF749FA05460021FCF757
:1042B00017FB09D10021E24A9160D160E1480088F2
:1042C00040F02000DF49088067E366E32046FDF701
:1042D00035FA05460021FCF703FB09D10021D84A35
:1042E00011615161D748008840F02000D54908800D
:1042F00053E352E32046FDF721FA05460021FCF77F
:10430000EFFA09D10020CE4A9061D061CD480088F3
:1043100040F02000CB4908803FE33EE32046FDF714
:104320000DFA05460021FCF7DBFA09D10021C44A49
:1043300011625162C348008840F02000C1490880E2
:104340002BE32AE32046FDF707FA26E32046FDF794
:1043500003FA22E32046FDF7F1F905460021FCF7B8
:10436000BFFA09D10021B84A11605160B5480088F0
:1043700040F04000B34908800FE30EE32046FDF70C
:10438000DDF905460021FCF7ABFA09D10020AE4A61
:104390009060D060AB48008840F04000A949088098
:1043A000FBE2FAE22046FDF7C9F905460021FCF7D9
:1043B00097FA09D10021A44A11615161A1480088EE
:1043C00040F040009F490880E7E2E6E22046FDF722
:1043D000B5F905460021FCF783FA09D100219A4A74
:1043E0009161D1619748008840F04000954908806C
:1043F000D3E2D2E22046FDF7A1F905460021FCF701
:104400006FFA09D10021904A116251628D480088EB
:1044100040F040008B490880BFE2BEE22046FDF735
:104420009BF98A49C8808748008840F00200854986
:104430000880B2E22046FDF78FF98449087181486F
:10444000008840F002007F490880A6E22046FDF780
:1044500083F97E4948717B48008840F00200794921
:1044600008809AE22046FDF777F978490881754877
:10447000008840F00200734908808EE22046FDF774
:104480006BF9724948816F48008840F002006D491D
:10449000088082E22046FDF75FF96C49888169480F
:1044A000008840F002006749088076E22046FDF768
:1044B00053F96649C8816348008840F002006149A9
:1044C00008806AE22046FDF747F96049C8825D48E6
:1044D000008840F002005B4908805EE22046FDF75C
:1044E0003BF95A4948825748008840F00200554934
:1044F000088052E22046FDF72FF9544908825148BE
:10450000008840F002004F49088046E22046FDF74F
:1045100023F94E4988824B48008840F002004949FF
:1045200008803AE22046FDF717F936E22046FDF70B
:1045300013F94649887008468078012801DA01207D
:10454000887042488078402802DD40203F498870CA
:104550003C48008840F002003A4908801DE22046AD
:10456000FDF7FAF83949C8700846C078052801DD1A
:104570000520C8703348008840F0020031490880A7
:104580000BE22046FDF7DAF8304988632D480088B1
:1045900040F002002B490880FFE1FEE12046FDF7D4
:1045A000CDF82A49C8632748008840F00200254911
:1045B0000880F2E1F1E12046FDF7CEF8A0F5B44124
:1045C0003C3904D1702241F2707003F0EFFAE4E15B
:1045D0002046FDF7C1F8A0F5B4413C3904D1702262
:1045E0004FF4BF5003F0E2FAD7E12046FDF7B4F8EC
:1045F000A0F5B4413C3904D1702241F6500003F0DB
:10460000D5FACAE12046FDF7A7F8A0F5B4413C3938
:1046100004D170224FF4C65003F0C8FABDE1204621
:10462000FDF79AF8A0F5B4413C3904D1702241F667
:10463000301003F0BBFAB0E10020AC407003002062
:10464000800300200C000020B0030020280300207D
:104650002046FDF781F8A0F5B4413C3904D1702221
:104660004FF4CD5003F0A2FA97E12046FDF774F81D
:10467000A0F5B4413C3904D150224FF47A6003F0E4
:1046800095FA8AE12046FDF767F8A0F5B4413C3978
:1046900005D14FF4A0724FF47F6003F087FA7CE1FC
:1046A0002046FDF759F8A0F5B4413C3905D14FF447
:1046B000207241F2301003F079FA6EE12046FDF7E6
:1046C0004BF8A0F5B4413C3904D1A02241F2B030FE
:1046D00003F06CFA61E12046FDF73EF85DE120460B
:1046E000FDF73AF859E12078AD49087060784870D4
:1046F000AC48008840F00100AA4908804DE12078CC
:10470000A74988706078C870A648008840F001000A
:10471000A449088041E12078A14908716078487176
:10472000A048008840F001009E49088035E12046FD
:10473000FDF712F831E12046FDF70EF82DE1204695
:10474000FDF70AF829E16078217800EB012096490D
:1047500048630846808E0004A17800EB0120E178D0
:104760000844914948638F48008840F002008D4911
:10477000088012E111E12046FCF7EEFF0DE1204632
:10478000FCF7EAFF05468848008D88490988081A21
:10479000281A00B2844908850846408D844900E003
:1047A000FAE00988081A281A00B27F4948850846A5
:1047B000B0F9280040F2F641884202DD08467A4905
:1047C00008857948B0F928007A49884203DA4FF61B
:1047D0000A30754908857448B0F92A0040F2F6415C
:1047E000884202DD0846704948856F48B0F92A00C2
:1047F0007049884203DA4FF60A306B4948856948A8
:10480000008840F0020067490880C6E02046FCF7B7
:10481000A3FFC2E02046FCF79FFF63490870614890
:10482000008840F002005F490880B6E02046FCF7AF
:1048300093FFB0F5966F09D0B0F5166F0AD0B0F5BA
:10484000965F0BD0B0F5964F10D10BE00220564981
:1048500048700FE00520544948700BE00820524989
:10486000487007E00E205049487003E00B204E4985
:10487000487000BF00BF90E02046FCF76DFF4A493A
:1048800008864848008840F002004649088084E0D5
:104890002046FCF761FF444948864248008840F0C2
:1048A00002004049088078E02046FCF755FF3E4969
:1048B00088853C48008840F002003A4908806CE056
:1048C0002046FCF749FF3849C8853648008840F043
:1048D00002003449088060E02046FCF73DFF324981
:1048E00008833048008840F002002E49088054E0D8
:1048F0002046FCF731FF2C4948832A48008840F0C5
:1049000002002849088048E02046FCF725FF264998
:1049100088832448008840F00200224908803CE057
:104920002046FCF719FF2049C8831E48008840F044
:1049300002001C49088030E02046FCF70DFF1A49B0
:1049400008841848008840F002001649088024E0D6
:104950002046FCF701FF144948841248008840F0C3
:1049600002001049088018E02046FCF7F5FE0E49C9
:1049700088840C48008840F002000A4908800CE056
:104980002046FCF7E9FE0849C8840648008840F044
:1049900002000449088000E000BF00BFBDE8F09FAE
:1049A000060000200C000020280300203400002016
:1049B000360000200AFBFFFF00BFFEE7FEB5D3482C
:1049C0000078D3490978884272D1D2480178CF481B
:1049D000FCF720FC0028F7D1CC48801CFCF7BCFE7B
:1049E00084B2CA484078032806D0042805D0062897
:1049F0007ED010287DD134E100BFC448001DFCF7F3
:104A0000ABFE85B24B2C76DB502C74DCA4F14B0052
:104A100006285CD2DFE800F00312202F3D4DBE498E
:104A20000979491B01F00F01C1EBC10141F270721C
:104A30008818072201A901F08FFA49E0B64949799F
:104A4000491B01F00F01C1EBC10101F5BF50072265
:104A500001A901F081FA3BE0AF498979491B01F0D6
:104A60000F01C1EBC10141F650028818072201A9CC
:104A700001F072FA2CE0A849C979491B01F00F0135
:104A8000C1EBC10101F5C650072201A901F064FA8A
:104A90001EE0A149097A491B01F00F01C1EBC101D8
:104AA00041F630128818072201A901F055FA0FE0EB
:104AB000FEE09949497A491B01F00F01C1EBC101A0
:104AC00001F5CD50072201A901F046FA00E000BF30
:104AD00000BF072091498870C81C01990160BDF88A
:104AE000081081809DF80A10817101F02DFC78E09A
:104AF00078E0DAE0FFE7522C5ADB552C58DC522CD8
:104B000006D0532C14D0542C22D0552C40D12FE059
:104B100081490978491B01F0070101EB81014FF43C
:104B20007A6202EB41000A22694601F015FA30E090
:104B300079494978491B01F01F0101EB81014FF4CC
:104B40007F6202EB41000A22694601F005FA20E08B
:104B500071498978491B01F03F0101EB810141F264
:104B6000301202EB41000A22694601F0F5F910E02B
:104B70006949C978491B01F00F0101EB810141F23C
:104B8000B03202EB41000A22694601F0E5F900E08B
:104B900000BF00BF0A2061498870C81C00990160ED
:104BA00001994160BDF80810018101F0CDFB18E0CA
:104BB0006019B0F5967F14DA584EF61C6806000EA0
:104BC000F11E887008E031462046FEF7FDFB601CB0
:104BD00084B2B61C681E85B2002DF4DC01F0B4FB73
:104BE00000BF63E0652C01D0662C07D14749091D41
:104BF0002046FFF7CBF903F0EBF931E0672C21D128
:104C00004748807860BB4148001DFCF7A5FD85B290
:104C10004348018802A8FDF7CDFD022102A8FCF758
:104C2000F9FA3F49088008460088A84204D13C2090
:104C3000C87003F0CDF904E000203949C8703C2069
:104C400088700DE03648C078002809DDB4F5967FFD
:104C500006DA2E49091D2046FFF798F903F0B8F946
:104C600024E02A48001DFCF777FD85B22C48C07867
:104C7000002819DD25488079B0EB450F14D1601963
:104C8000B0F5967F10DC214EF61D08E03146204637
:104C9000FFF77CF9601C84B2B61C681E85B2002D3B
:104CA000F4DC03F095F900BF00BF00BF00BF28E0AF
:104CB0001648007828BB15484078032803D01348CD
:104CC000407804281DD11148801CFCF745FD65285B
:104CD00017D10E48001DFCF73FFD012811D10D48EA
:104CE00001780A48FCF796FA58B90C4CE41C0220EB
:104CF000E11E887021466520FEF766FB01F024FB6B
:104D000000BF002003490870FEBD00007C060020A3
:104D1000280300201E000020E00300207C05002066
:104D200056000020704708B54FF4C06000F086F8C8
:104D300025208DF8000000208DF8010002208DF85C
:104D4000020001208DF80300684600F03DF826209F
:104D50008DF8000000208DF8010003208DF802007E
:104D600001208DF80300684600F02EF827208DF80A
:104D7000000000208DF8010004208DF802000120C1
:104D80008DF80300684600F01FF834208DF800000D
:104D900000208DF8010005208DF8020001208DF81B
:104DA0000300684600F010F81E208DF80000002077
:104DB0008DF8010006208DF8020001208DF8030017
:104DC000684600F001F808BD70B5002100230F22ED
:104DD000C4780CB3164C246804F4E064C4F5E064B1
:104DE000210AC1F10403CA40447804FA03F184782B
:104DF0001440214309010F4C0678A155047804F0B2
:104E00001F050124AC4005786D114FF0E02606EB3C
:104E10008505C5F8004109E0047804F01F05012468
:104E2000AC40054D0678761145F8264070BD00006F
:104E30000CED00E000E400E080E100E00249014305
:104E4000024A1160704700000000FA050CED00E016
:104E500010B500F00FF800F049FB00F071FB00F016
:104E600093FB00F042FB00F0C3FB00F0E9FB00F015
:104E700002F810BD7047704706480078012808D135
:104E800005480078FF2804D203480078401C0249F6
:104E900008707047B2000020A900002010B500245F
:104EA0001A480078012830D1FBF75EF9044618480B
:104EB0000078002804DD16480078401E1449087068
:104EC00013480078F0B913480078D8B900F024FCF2
:104ED0001148007811490978884213D010480E49CA
:104EE000097850F821000F49086008460068806A78
:104EF000401C096888620C480068401C0A49086028
:104F0000FBF74EF92046FBF733F910BDB200002045
:104F1000A9000020AA000020AC000020AB00002067
:104F200084460020C00000209800002010B50B48E7
:104F3000007890B900F0F0FB094800780949087042
:104F400009480749097850F82100084908600846CF
:104F5000006807490860FBF70EF910BDB200002099
:104F6000AC000020AB00002084460020C0000020E0
:104F7000B8000020704700002DE9FE4F06460F469E
:104F800090461C464FF000091F2C02DD2A20BDE888
:104F9000FE8FFBF7E9F881461F480078002804DD02
:104FA0004846FBF7E5F83C20F1E71C4850F82400A0
:104FB00060BB0120194941F824004846FBF7D8F8A6
:104FC000002342463946304600F036F9824600203A
:104FD000009001900346024651460290204600F0A0
:104FE000C9FB054635B90E48007801280CD100F000
:104FF00059FB09E0FBF7B8F881460020074941F862
:1050000024004846FBF7B4F82846C0E74846FBF7BB
:10501000AFF82820BBE70000A9000020844600204C
:10502000B20000202DE9F04F85B081468A469346B4
:105030001C46DDE90F78129D002003901F2C03DD34
:105040002A2005B0BDE8F08FFBF78EF803902248C8
:105050000078002804DD0398FBF78AF83C20F0E78D
:105060001E4850F8240088BB01201C4941F8240048
:105070000398FBF77DF82A464146384600F080FC4D
:105080002B465A465146484600F0D6F804901198EF
:10509000CDE9008002953A4620460E9B049900F027
:1050A00069FB064636B90E48007801280CD100F09D
:1050B000F9FA09E0FBF758F803900020074941F896
:1050C00024000398FBF754F83046BAE7FFE703984B
:1050D000FBF74EF82820B4E7A90000208446002002
:1050E000B2000020704770472DE9F04705460F4693
:1050F00014464FF000090CB9BDE8F0871F2D04DD00
:10510000FF2D02D02A202070F6E717B90C2020705E
:10511000F2E71D480078002802DD12202070EBE73E
:10512000FBF722F88146FF2D03D11848006890F85C
:105130002050174850F825602EB94846FBF718F85C
:1051400043202070D8E7012E05D14846FBF710F820
:1051500043202070D0E7384600F002FB8046B8F1CB
:105160000F0F05DD4846FBF703F841202070C3E729
:10517000394606F13C0000F0E5FA4846FAF7F8FF38
:105180000020207000BFB7E7A9000020B800002071
:1051900084460020704700002DE9F04706460C4683
:1051A0004FF0000A1F2E04DDFF2E02D02A20BDE89A
:1051B000F0870CB90920FAE7002020606060FAF758
:1051C000D3FF8246FF2E03D11948006890F8206073
:1051D000184850F8265025B95046FAF7C9FF432021
:1051E000E5E7012D04D15046FAF7C2FF4320DEE780
:1051F000287C10F0010F04D15046FAF7B9FF452082
:10520000D5E70027D5F80C90D5F808805046FAF776
:10521000AFFF00E07F1C58F8041B0029FAD0B8004B
:105220002060A9EB0700800060600020BFE700005D
:10523000B80000208446002070B5044610464FF0A8
:1052400080750560051F28462C606FF00106051F5C
:1052500028462E604FF01236051F28462E604FF06C
:105260000336051F28462E604FF00236051F2846DC
:105270002E607610051F28462E60051F28462960DF
:105280004FF01136051F28462E604FF01036051FCF
:1052900028462E604FF00936051F28462E604FF035
:1052A0000836051F28462E604FF00736051F284692
:1052B0002E604FF00636051F28462E604FF005364B
:1052C000051F28462E604FF00436051F28462E6025
:1052D00070BD00002DE9F04105464FF000081F2D7C
:1052E00002D14720BDE8F0811F2D03DBFF2D01D047
:1052F0002A20F7E7FAF738FF8046FF2D05D11F482F
:10530000006890F82050012608E01C48006890F8DA
:105310002000A84201D1012600E00026184850F8DC
:10532000254024B94046FAF723FF4820DAE7012C4C
:1053300004D14046FAF71CFF4320D3E794F82270CB
:105340001048C05D94F8231088430E49C85508469C
:10535000C05D30B994F824100B48007888430A499E
:105360000870A07F40F00800A0774046FAF700FFE1
:10537000012E01D100F096F90020B3E7B80000201B
:1053800084460020AE000020AD00002070470000E1
:1053900070B50546002616480078002800DD70BD6F
:1053A000002D23DDFAF7E0FE06461248006890F86B
:1053B00022401148005D0F49096891F82310884385
:1053C0000D4908550846005D40B90A48006890F844
:1053D00024100A4800788843084908700548006886
:1053E00085833046FAF7C4FE00F05CF900BFD6E7CB
:1053F000A9000020B8000020AE000020AD00002071
:1054000070B5002600F070F8FAF7AEFE0646304898
:105410000068401C2E4908603046FAF7A9FE2D4866
:105420000078012852D12C48007820B1012804D0FE
:10543000022809D103E001250BE0002509E0012540
:1054400001202549087004E0012500202249087048
:1054500000BF00BF05B970BD2048046832E0FAF70C
:1054600083FE0646A08B48B3A08B401E0004000CB0
:10547000A08323D1A07F10F0370F06D0A07F20F0AB
:105480003700A0770120E07701E00020E077A07FDF
:1054900010F0080F12D104F12204A0781049097805
:1054A00040EA01000E49087020780E49085C6178D6
:1054B00040EA010014F822190A4A5054646930463F
:1054C000FAF756FE94F820001F28C8D100BFC2E7A3
:1054D000CC000020B2000020C8000020C400002042
:1054E000AD000020AE0000207047704700200A4940
:1054F00008600A4908700A4908700A4908700A4990
:1055000008700A4908600A4908600A4908600A499F
:1055100008600A4908707047CC000020A9000020EC
:10552000AA000020B3000020B20000209800002054
:10553000B4000020A4000020A0000020A80000204B
:1055400000220B4B1A700B49002004E0002201F8E6
:10555000012B421CD0B20428F8DB0022064B1A7043
:10556000064B1A70064B1A60064B1A607047000013
:10557000AD000020AE000020AB000020AC000020F9
:10558000C0000020B800002030B54FF4AB611448D3
:1055900000F07EF88021134800F07AF8104B03F1F8
:1055A0004C0500240AE05D613F2083F83C000021A7
:1055B0003D20C1544C334C35601CC4B2112CF2D385
:1055C000002058613F2083F83C0000213D20C15459
:1055D00000200549086002480449086030BD000009
:1055E0000447002084460020C4000020BC000020A6
:1055F00000B587B00320002180220A4BCDE901329B
:10560000CDE903104FF6FF701F23074A00900748AB
:10561000FFF708FD06AA06A11F20FFF765FD07B0EA
:1056200000BD0000844400208046002099580008F6
:1056300075432F4F532D49492049646C6500000084
:1056400000B587B00320002180220A4BCDE901324A
:10565000CDE903104FF6FE701E23074A009007485D
:10566000FFF7E0FC06AA06A11E20FFF73DFD07B0EC
:1056700000BD00008442002080440020BD58000886
:1056800075432F4F532D4949205374617400000016
:1056900004E0002200F8012B4A1E91B20029F8DC38
:1056A0007047000010B50024FAF75EFD0446134869
:1056B0000078F0B912480078D8B900F02DF81148F8
:1056C000007811490978884213D010480D490978AB
:1056D00050F821000E49086008460068806A401CA6
:1056E000096888620B480068401C0A490860FAF79C
:1056F00052FD2046FAF73CFD10BD0000A900002035
:10570000AA000020AC000020AB000020844600204E
:10571000C0000020980000200649074A1278885CE3
:105720000649095C034A515C01EBC001044A11704F
:105730007047000054B30008AD000020AE00002008
:10574000AC0000200246002005E011F8013B02F801
:10575000013B431CD8B20B78002BF6D11370704775
:105760000146002002E0491C421CD0B20A78002AFF
:10577000F9D170472DE9F84F05460E461746984671
:10578000DDE90BABDDF8289000200090FAF7ECFC87
:1057900000903B480468002C6DD004F1080438499F
:1057A000E06808600098FAF7E3FC44F8086C257696
:1057B0000020A075E075A08244F804ACC4F8049001
:1057C0002760A4F808B0A4F80A806077E810A076F3
:1057D00005F007006076A17E012088402077617E79
:1057E00001208840E07600202062A0626062E062D2
:1057F00020633F2084F83400A4F108044FF0000136
:105800004FF03D0001552046FFF7B4FB2046FFF75F
:1058100069FCFAF7A9FC00901A4840F825401A489C
:10582000006860610020A0611748006810B1164848
:10583000006884611448046004F12204A0781349CC
:10584000097840EA01001149087020781049085C85
:10585000617840EA010014F822190D4A50540D48AD
:10586000007800F101000B4908700098FAF780FCFD
:105870000020BDE8F88F0098FAF77AFC4220F8E79C
:10588000BC00002084460020C4000020AD000020A1
:10589000AE000020B3000020002400BFFAF764FC33
:1058A000044605480068401C034908602046FAF792
:1058B0005FFCFFF718FCF1E7B4000020002402E0D1
:1058C000C820FFF765FD1A4800780028F8D019486D
:1058D00000686421B0FBF1F01649086008460068D2
:1058E00028B9002014490870FF20FFF7F3FC00BF1F
:1058F000FAF73AFC04461148006811490860002094
:105900000E4908602046FAF733FC0D480068094943
:105910000968B0FBF1F0C0F1640007490870FFF7B7
:1059200039FC00F00FF86420FFF732FDE0E70000DB
:10593000A8000020A00000209C000020B40000204F
:10594000A40000207CB5002514E069462846FFF736
:1059500023FC064666B9094850F8254044B1012C9D
:1059600006D0D4E9020100EB810060630198A063D6
:10597000681CC5B21F2DE8DD7CBD000084460020F8
:1059800012F0010F08D012F0020F05D002E0491EFC
:10599000002308C00029FAD1704700002DE9FF5FFD
:1059A0002848007918B92848D0F800A002E0274814
:1059B000D0F800A02349888DFAF7B2FE044651467C
:1059C000FAF798FF04D84FF47A602149088033E051
:1059D0001C49C88DFAF7A4FE04465146FAF780FF29
:1059E00004D844F620601A49088025E01549C98D7D
:1059F000144A928D881AFAF7ADFE04460D461149F5
:105A0000888DFAF78DFE51460190FAF77FFC8346A8
:105A1000FAF737FF064600220E4BFAF797FD2246AB
:105A20002B46CDE90201FAF703FE8046FAF710FF94
:105A300000F57A60064908800548008800F0C2FE3B
:105A4000BDE8FF9F28030020440000204C000020F8
:105A5000120000200040CF402DE9F04F87B0834670
:105A60004448408E00287DDD4249488EFAF783FE87
:105A7000CDE902015846FAF76DFE804600223E4B02
:105A8000FAF7D6FDCDE90001DDE90223FAF7D0FDF2
:105A900006460F4639480068FAF7F3FE32463B46A1
:105AA000CDE90401FAF7ABFC0446FAF7FDFE3349F1
:105AB000086008460068FAF798FE1FFA80FA504618
:105AC000FAF72EFE04462D4801682046FAF71EFC20
:105AD0002A4908602A480088504429490880084615
