:020000040800F2
:10000000303D00204501000851080008B9060008ED
:100010004D08000899040008FF1E000800000000B9
:10002000000000000000000000000000151600089D
:10003000E904000800000000AB010008F916000800
:100040005F0100085F0100085F0100085F01000810
:100050005F0100085F0100085F0100085F01000800
:100060005F0100085F0100085F0100085F010008F0
:100070005F0100085F0100085F0100085F010008E0
:100080005F0100085F0100085F0100085F010008D0
:100090005F0100085F0100085F0100085F010008C0
:1000A0005F0100085F0100085F0100085F010008B0
:1000B0005F0100085F0100085F0100085F010008A0
:1000C0005F0100085F0100085F0100085F01000890
:1000D0005F010008351C00089D1C00085F01000836
:1000E0005F0100085F0100085F0100085F01000870
:1000F0005F0100085F0100085F0100085F01000860
:100100005F0100085F0100085F0100085F0100084F
:100110005F0100085F0100085F0100085F0100083F
:100120005F0100085F0100085F0100085F0100082F
:10013000DFF80CD000F06AF800480047211F0008E3
:10014000303D00200648804706480047FEE7FEE7AE
:10015000FEE7FEE7FEE7FEE7FEE7FEE7FEE7FEE777
:100160006D17000831010008EFF3108072B6704778
:1001700080F3108870471D484FF0FF010170002088
:1001800080F309881A48012101701A484FF0805104
:10019000016062B6FEE717484FF08051016070477A
:1001A00014484FF080510160704772B6EFF3098038
:1001B00028B1203880E8F00F0F490968086000B5C1
:1001C0000E4880475DF804EB0D480E490A7802702E
:1001D00009480D490A680260106890E8F00F203065
:1001E00080F309884EF0040E62B6704722ED00E0FD
:1001F0004204002004ED00E048040020990E0008AD
:100200003B0400203C04002050040020064C074D15
:1002100006E0E06840F0010394E8070098471034D6
:10022000AC42F6D3FFF788FF88200008A82000081A
:1002300000B585B00121480201F062F9002001F00B
:1002400033F9002000908DF804008DF805004FF47C
:10025000602002900020039001208DF81000694674
:100260000E4800F041F801210C4800F019F8142064
:1002700000F047F9094800F0BBF800BF074800F05C
:1002800028F80028FAD1054800F0C2F800BF03485A
:1002900000F011F80028FAD105B000BD002401409B
:1002A00021B1826842F00102826003E0826822F09C
:1002B000010282607047014600208A6812F0040F34
:1002C00001D0012000E0002070470146C86C80B2D8
:1002D0007047014600208A6812F0080F01D0012003
:1002E00000E000207047000030B5024600200023E7
:1002F00050680F4C20400D790C6844EA05242043D7
:10030000506090680B4C2040D1E902542C434D7949
:1003100044EA450420439060D06A20F470000C7CCD
:10032000641EE4B2234340EA0350D06230BD0000B3
:10033000FFFEF0FFFDF7F1FFF0B504460D4600208B
:100340000021092D11DDE068A5F10A0606EB46073C
:10035000072606FA07F18843A5F10A0606EB4606CA
:1003600003FA06F10843E0600CE0206905EB45075D
:10037000072606FA07F1884305EB450603FA06F15E
:1003800008432061072A0FDA606B561E06EB8607CA
:100390001F2606FA07F18843561E06EB860605FA65
:1003A00006F10843606322E00D2A0FDA206BD61FA6
:1003B00006EB86071F2606FA07F18843D61F06EBD1
:1003C000860605FA06F10843206310E0E06AA2F110
:1003D0000D0606EB86071F2606FA07F18843A2F1F1
:1003E0000D0606EB860605FA06F10843E062F0BD4D
:1003F000816841F008018160704721B1826842F450
:10040000A002826003E0826822F4A002826070474A
:10041000816841F0040181607047000010B5052338
:10042000114A0021114800F02DFB0623104A00213B
:10043000104800F027FB07230F4A00210F4800F067
:1004400021FB08230E4A00210E4800F01BFB092364
:100450000D4A00210D4800F015FB0A230C4A00212B
:100460000C4800F00FFB10BD44080020351B0008AD
:1004700014100020851B0008E41700208F1B0008C3
:10048000B41F00209B1B000884270020AF1B00081E
:10049000542F0020C11B000800BFFEE71FB501213B
:1004A000480401F00DF84FF4166000900020ADF8FC
:1004B0000400ADF80600ADF80800ADF80C000C2003
:1004C000ADF80A006946074801F0A4FC012105487F
:1004D00001F045FC012240F22551024801F075FC73
:1004E0001FBD000000440040704700B5024605E013
:1004F0004FF47A7000F005F8501E82B2002AF7DC43
:1005000000BD14E000BF00BF00BF00BF00BF00BFC0
:1005100000BF00BF00BF00BF00BF00BF00BF00BFE3
:1005200000BF00BF00BF00BF00BF411E88B200284F
:10053000E8DC70472DE9F041024600250026002046
:1005400000230024002791F803C00CF00F0591F858
:1005500003C01CF0100F03D091F802C04CEA05054F
:1005600091F800C0BCF1000F31D0146800202BE0DE
:100570004FF0010C0CFA00F3B1F800C00CEA0306CE
:100580009E4220D183004FF00F0C0CFA03F7BC43BE
:1005900005FA03FC4CEA040491F803C0BCF1280FEF
:1005A00006D14FF0010C0CFA00FCC2F814C00AE0AE
:1005B00091F803C0BCF1480F05D14FF0010C0CFAC3
:1005C00000FCC2F810C0401C0828D1D31460B1F858
:1005D00000C0BCF1FF0F34DD546800202EE000F1B4
:1005E000080C4FF0010808FA0CF3B1F800C00CEA4F
:1005F00003069E4221D183004FF00F0C0CFA03F743
:10060000BC4305FA03FC4CEA040491F803C0BCF1B6
:10061000280F05D100F1080C08FA0CF8C2F8148074
:1006200091F803C0BCF1480F07D100F1080C4FF05E
:10063000010808FA0CF8C2F81080401C0828CED334
:100640005460BDE8F081416170470161704700006E
:1006500010B5022301220A210848FFF76DFE01218F
:100660000648FFF7CAFE0720FFF74BFF0348FFF7D6
:100670002CFEC0EB0010C01110BD00000024014092
:100680000C48007810F0080F12D00A48183800788B
:100690000007000D0749091F097840EAD100054904
:1006A000097801F00701012202EB4111084370476C
:1006B0000020FCE7E8FF0FE000BFFEE708B50121DE
:1006C000042000F01DFF0121082000F019FF012186
:1006D000102000F015FF0121202000F011FF012162
:1006E000402000F00DFF40F61210ADF80000102081
:1006F0008DF8030001208DF8020069464E48FFF78F
:1007000019FF4FF480714C48FFF79DFF80214B4843
:10071000FFF799FF40F20620ADF8000001208DF8A8
:10072000020018208DF8030069464348FFF702FFD6
:1007300041F20940ADF8000004208DF8030069463D
:100740003D48FFF7F7FE4FF4A050ADF80000012040
:100750008DF8020010208DF8030069463848FFF735
:10076000E9FE4FF42040ADF8000001208DF80200B2
:1007700018208DF8030069463148FFF7DBFE4FF47F
:100780008040ADF8000004208DF8030069462C4835
:10079000FFF7D0FEF020ADF8000001208DF8020038
:1007A00010208DF8030069462648FFF7C3FE01209C
:1007B000ADF8000000208DF8030069462148FFF7DE
:1007C000B9FE4FF47240ADF8000001208DF8020030
:1007D00010208DF8030069461B48FFF7ABFE20216F
:1007E0001948FFF732FF40F60450ADF8000004202E
:1007F0008DF8030069461448FFF79CFE4FF4D6704D
:10080000ADF8000001208DF8020010208DF80300E3
:1008100069460A48FFF78EFE20210848FFF715FFBA
:100820001120ADF8000004208DF80300694603484C
:10083000FFF780FE08BD00000008014000180140DD
:10084000000C0140001001400014014000BFFEE711
:10085000704708B54FF4C06000F076F828208DF896
:10086000000000208DF801008DF8020001208DF8B5
:100870000300684600F02EF82E208DF800000020BE
:100880008DF8010001208DF802008DF80300684604
:1008900000F020F825208DF8000000208DF80100E0
:1008A00002208DF8020001208DF80300684600F058
:1008B00011F826208DF8000000208DF8010003209B
:1008C0008DF8020001208DF80300684600F002F860
:1008D00008BD000070B5002100230F22C4780CB3BE
:1008E000164C246804F4E064C4F5E064210AC1F104
:1008F0000403CA40447804FA03F184781440214385
:1009000009010F4C0678A155047804F01F05012455
:10091000AC4005786D114FF0E02606EB8505C5F873
:10092000004109E0047804F01F050124AC40054DA6
:100930000678761145F8264070BD00000CED00E009
:1009400000E400E080E100E002490143024A116056
:10095000704700000000FA050CED00E010B500F053
:100960000FF800F049FB00F071FB00F093FB00F082
:1009700042FB00F0C3FB00F0E9FB00F002F810BD01
:100980007047704706480078012808D1054800786C
:10099000FF2804D203480078401C024908707047C1
:1009A000420400203904002010B500241A480078C1
:1009B000012830D1FFF7D8FB0446184800780028FA
:1009C00004DD16480078401E14490870134800786A
:1009D000F0B913480078D8B900F024FC1148007829
:1009E00011490978884213D010480E49097850F807
:1009F00021000F49086008460068806A401C0968A9
:100A000088620C480068401C0A490860FFF7C8FB70
:100A10002046FFF7ADFB10BD420400203904002042
:100A20003A0400203C0400203B04002058330020FE
:100A3000500400202804002010B50B48007890B91D
:100A400000F0F0FB09480078094908700948074997
:100A5000097850F8210008490860084600680749ED
:100A60000860FFF788FB10BD420400203C04002012
:100A70003B0400205833002050040020480400208C
:100A8000704700002DE9FE4F06460F4690461C4673
:100A90004FF000091F2C02DD2A20BDE8FE8FFFF772
:100AA00063FB81461F480078002804DD4846FFF7B5
:100AB0005FFB3C20F1E71C4850F8240060BB01209C
:100AC000194941F824004846FFF752FB00234246EB
:100AD0003946304600F036F98246002000900190F9
:100AE0000346024651460290204600F0C9FB0546E7
:100AF00035B90E48007801280CD100F059FB09E007
:100B0000FFF732FB81460020074941F824004846A0
:100B1000FFF72EFB2846C0E74846FFF729FB2820B1
:100B2000BBE70000390400205833002042040020B5
:100B30002DE9F04F85B081468A4693461C46DDE993
:100B40000F78129D002003901F2C03DD2A2005B092
:100B5000BDE8F08FFFF708FB0390224800780028DB
:100B600004DD0398FFF704FB3C20F0E71E4850F833
:100B7000240088BB01201C4941F824000398FFF79A
:100B8000F7FA2A464146384600F080FC2B465A4682
:100B90005146484600F0D6F804901198CDE90080FF
:100BA00002953A4620460E9B049900F069FB0646E2
:100BB00036B90E48007801280CD100F0F9FA09E0A6
:100BC000FFF7D2FA03900020074941F82400039868
:100BD000FFF7CEFA3046BAE7FFE70398FFF7C8FA07
:100BE0002820B4E7390400205833002042040020B4
:100BF000704770472DE9F04705460F4614464FF001
:100C000000090CB9BDE8F0871F2D04DDFF2D02D0CF
:100C10002A202070F6E717B90C202070F2E71D4853
:100C20000078002802DD12202070EBE7FFF79CFA25
:100C30008146FF2D03D11848006890F820501748CE
:100C400050F825602EB94846FFF792FA43202070ED
:100C5000D8E7012E05D14846FFF78AFA43202070D5
:100C6000D0E7384600F002FB8046B8F10F0F05DDF3
:100C70004846FFF77DFA41202070C3E7394606F168
:100C80003C0000F0E5FA4846FFF772FA00202070B9
:100C900000BFB7E739040020480400205833002083
:100CA000704700002DE9F04706460C464FF0000A59
:100CB0001F2E04DDFF2E02D02A20BDE8F0870CB9DC
:100CC0000920FAE7002020606060FFF74DFA8246B5
:100CD000FF2E03D11948006890F82060184850F89A
:100CE000265025B95046FFF743FA4320E5E7012D8A
:100CF00004D15046FFF73CFA4320DEE7287C10F091
:100D0000010F04D15046FFF733FA4520D5E70027FD
:100D1000D5F80C90D5F808805046FFF729FA00E086
:100D20007F1C58F8041B0029FAD0B8002060A9EBFA
:100D30000700800060600020BFE70000480400203A
:100D40005833002070B5044610464FF0807505609A
:100D5000051F28462C606FF00106051F28462E60EF
:100D60004FF01236051F28462E604FF00336051F40
:100D700028462E604FF00236051F28462E6076105A
:100D8000051F28462E60051F284629604FF01136A2
:100D9000051F28462E604FF01036051F28462E608E
:100DA0004FF00936051F28462E604FF00836051F04
:100DB00028462E604FF00736051F28462E604FF05C
:100DC0000636051F28462E604FF00536051F2846BB
:100DD0002E604FF00436051F28462E6070BD0000BF
:100DE0002DE9F04105464FF000081F2D02D14720A4
:100DF000BDE8F0811F2D03DBFF2D01D02A20F7E78E
:100E0000FFF7B2F98046FF2D05D11F48006890F822
:100E10002050012608E01C48006890F82000A842F5
:100E200001D1012600E00026184850F8254024B9D9
:100E30004046FFF79DF94820DAE7012C04D14046EF
:100E4000FFF796F94320D3E794F822701048C05D6D
:100E500094F8231088430E49C8550846C05D30B940
:100E600094F824100B48007888430A490870A07F42
:100E700040F00800A0774046FFF77AF9012E01D133
:100E800000F096F90020B3E7480400205833002012
:100E90003E0400203D0400207047000070B5054668
:100EA000002616480078002800DD70BD002D23DDE7
:100EB000FFF75AF906461248006890F82240114898
:100EC000005D0F49096891F8231088430D490855C2
:100ED0000846005D40B90A48006890F824100A48A6
:100EE00000788843084908700548006885833046C3
:100EF000FFF73EF900F05CF900BFD6E739040020A7
:100F0000480400203E0400203D04002070B5002667
:100F100000F070F8FFF728F9064630480068401CDA
:100F20002E4908603046FFF723F92D480078012844
:100F300052D12C48007820B1012804D0022809D1D0
:100F400003E001250BE0002509E0012501202549EA
:100F5000087004E0012500202249087000BF00BF8E
:100F600005B970BD2048046832E0FFF7FDF8064679
:100F7000A08B48B3A08B401E0004000CA08323D19B
:100F8000A07F10F0370F06D0A07F20F03700A077A9
:100F90000120E07701E00020E077A07F10F0080F4B
:100FA00012D104F12204A0781049097840EA010026
:100FB0000E49087020780E49085C617840EA01000B
:100FC00014F822190A4A505464693046FFF7D0F8E1
:100FD00094F820001F28C8D100BFC2E75C0400209D
:100FE0004204002058040020540400203D04002046
:100FF0003E0400207047704700200A4908600A49F3
:1010000008700A4908700A4908700A4908700A49B4
:1010100008600A4908600A4908600A4908600A49E4
:10102000087070475C040020390400203A04002056
:10103000430400204204002028040020440400202F
:1010400034040020300400203804002000220B4B20
:101050001A700B49002004E0002201F8012B421C09
:10106000D0B20428F8DB0022064B1A70064B1A7027
:10107000064B1A60064B1A60704700003D040020C2
:101080003E0400203B0400203C04002050040020CB
:101090004804002030B54FF4AB61144800F07EF8EE
:1010A0008021134800F07AF8104B03F14C0500241E
:1010B0000AE05D613F2083F83C0000213D20C154DF
:1010C0004C334C35601CC4B2112CF2D30020586153
:1010D0003F2083F83C0000213D20C15400200549F9
:1010E000086002480449086030BD0000D833002081
:1010F00058330020540400204C04002000B587B071
:101100000320002180220A4BCDE90132CDE90310F2
:101110004FF6FF701F23074A00900748FFF708FDAE
:1011200006AA06A11F20FFF765FD07B000BD00005D
:101130005831002054330020A513000875432F4F69
:10114000532D49492049646C6500000000B587B003
:101150000320002180220A4BCDE90132CDE90310A2
:101160004FF6FE701E23074A00900748FFF7E0FC89
:1011700006AA06A11E20FFF73DFD07B000BD000036
:10118000582F002054310020C913000875432F4FF9
:10119000532D4949205374617400000004E000227B
:1011A00000F8012B4A1E91B20029F8DC70470000BC
:1011B00010B50024FEF7D8FF044613480078F0B9B4
:1011C00012480078D8B900F02DF81148007811497C
:1011D0000978884213D010480D49097850F8210049
:1011E0000E49086008460068806A401C09688862E9
:1011F0000B480068401C0A490860FEF7CCFF2046F7
:10120000FEF7B6FF10BD0000390400203A040020AC
:101210003C0400203B0400205833002050040020F0
:10122000280400200649074A1278885C0649095CB0
:10123000034A515C01EBC001044A11707047000081
:10124000881F00083D0400203E0400203C040020CC
:101250000246002005E011F8013B02F8013B431C67
:10126000D8B20B78002BF6D11370704701460020DE
:1012700002E0491C421CD0B20A78002AF9D170471A
:101280002DE9F84F05460E4617469846DDE90BABAB
:10129000DDF8289000200090FEF766FF00903B48A4
:1012A0000468002C6DD004F108043849E068086037
:1012B0000098FEF75DFF44F8086C25760020A075C5
:1012C000E075A08244F804ACC4F804902760A4F848
:1012D00008B0A4F80A806077E810A07605F007004F
:1012E0006076A17E012088402077617E01208840C1
:1012F000E07600202062A0626062E06220633F200E
:1013000084F83400A4F108044FF000014FF03D00D0
:1013100001552046FFF7B4FB2046FFF769FCFEF7B6
:1013200023FF00901A4840F825401A480068606181
:101330000020A0611748006810B116480068846159
:101340001448046004F12204A0781349097840EAA3
:1013500001001149087020781049085C617840EA62
:10136000010014F822190D4A50540D48007800F17C
:1013700001000B4908700098FEF7FAFE0020BDE856
:10138000F88F0098FEF7F4FE4220F8E74C040020A6
:1013900058330020540400203D0400203E04002067
:1013A00043040020002400BFFEF7DEFE044605488B
:1013B0000068401C034908602046FEF7D9FEFFF78D
:1013C00018FCF1E744040020002402E0C820FFF7E5
:1013D00065FD1A4800780028F8D019480068642193
:1013E000B0FBF1F0164908600846006828B90020F3
:1013F00014490870FF20FFF7F3FC00BFFEF7B4FEAE
:101400000446114800681149086000200E49086030
:101410002046FEF7ADFE0D48006809490968B0FB9B
:10142000F1F0C0F1640007490870FFF739FC00F0E3
:101430000FF86420FFF732FDE0E7000038040020D9
:10144000300400202C040020440400203404002038
:101450007CB5002514E069462846FFF723FC0646C4
:1014600066B9094850F8254044B1012C06D0D4E9AA
:10147000020100EB810060630198A063681CC5B2A3
:101480001F2DE8DD7CBD00005833002012F0010F55
:1014900008D012F0020F05D002E0491E002308C058
:1014A0000029FAD17047000001460020034A506825
:1014B00020F4404008435060704700000010024094
:1014C00029B1064AD2690243044BDA6104E0034AB7
:1014D000D2698243014BDA6170470000001002407C
:1014E00029B1064A12690243044B1A6104E0034A17
:1014F00012698243014B1A617047000000100240DC
:1015000029B1064A92690243044B9A6104E0034AF6
:1015100092698243014B9A617047000000100240BB
:1015200029B1064AD2680243044BDA6004E0034A58
:10153000D2688243014BDA6070470000001002401D
:1015400030B500210022002400232D4D6D6805F0E8
:101550000C0121B1042905D0082923D105E0294D2A
:10156000056022E0274D05601FE0254D6D6805F4FC
:101570007012234D6D6805F48034022505EB92420C
:101580001CB9214D554305600BE01D4D6D6815F4E8
:10159000003F03D01C4D5543056002E0194D5543F3
:1015A000056002E0174D056000BF00BF144D6D6877
:1015B00005F0F0010909154D6B5C0568DD404560DB
:1015C0000F4D6D6805F4E061090A104D6B5C4568CC
:1015D000DD4085600A4D6D6805F46051C90A0B4D08
:1015E0006B5C4568DD40C560054D6D6805F44041A4
:1015F000890B074D6B5CC568B5FBF3F5056130BD24
:101600000010024000127A0000093D00140400207E
:1016100024040020704710B500F002F810BD00004F
:101620000CB50020019000903148006840F48030F3
:101630002F49086000BF2E48006800F40030009079
:101640000198401C0190009820B90198A0F57F41B5
:10165000FF39F0D12648006810F4003F02D0012085
:10166000009001E000200090009801283ED1214820
:10167000006840F010001F4908600846006820F02C
:101680000300086008460068086019484068184967
:101690004860084640684860084640684860084618
:1016A000406820F47C1048600846406840F4981078
:1016B00048600846006840F08070086000BF0C4831
:1016C000006810F0007FFAD00948406820F003005D
:1016D000074948600846406840F00200486000BF83
:1016E0000348406800F00C000828F9D10CBD000048
:1016F000001002400020024010B5FFF743F9FFF749
:1017000005FCFFF751F910BD30B585B06846FFF70D
:1017100017FF4FF47A720098B0FBF2F1B1F1807FBD
:1017200000D31DE021F07F40401E4FF0E0225061C9
:1017300050170F22002807DA13071D0E094B00F07F
:101740000F04241F1D5503E013071C0E064B1C54E9
:1017500000BF00204FF0E02290610720106100BF21
:1017600005B030BD18ED00E000E400E010B513480E
:10177000006840F0010011490860084640681049BF
:1017800008400E494860084600680E4908400B4969
:1017900008600846006820F4802008600846406819
:1017A00020F4FE0048604FF41F008860FFF733FF0D
:1017B0004FF000600449086010BD000000100240B6
:1017C0000000FFF8FFFFF6FE08ED00E021B10288FF
:1017D00042F00102028004E002884FF6FE731A40D4
:1017E0000280704710B504466848844208D1012140
:1017F000C014FFF795FE0021E014FFF791FEC4E04E
:10180000B4F1804F08D101210846FFF769FE00219D
:101810000120FFF765FEB8E05D48844208D1012150
:101820000220FFF75DFE00210220FFF759FEACE029
:101830005848844208D101210420FFF751FE0021BD
:101840000420FFF74DFEA0E05348844208D1012157
:101850000820FFF745FE00210820FFF741FE94E035
:101860004E48844208D101211020FFF739FE0021A3
:101870001020FFF735FE88E04948844208D1012155
:101880002020FFF72DFE00212020FFF729FE7CE01D
:101890004448844208D101214014FFF741FE002151
:1018A0006014FFF73DFE70E03F48844209D10121FA
:1018B000C804FFF735FE00214FF40020FFF730FE8B
:1018C00063E03A48844209D101210805FFF728FE68
:1018D00000214FF48010FFF723FE56E03448844285
:1018E00009D101214805FFF71BFE00214FF400102C
:1018F000FFF716FE49E02F48844208D1012140201D
:10190000FFF7EEFD00214020FFF7EAFD3DE02A4809
:10191000844208D101218020FFF7E2FD00218020D0
:10192000FFF7DEFD31E02548844208D10121801512
:10193000FFF7D6FD0021A015FFF7D2FD25E02048D6
:10194000844209D101210804FFF7EAFD00214FF488
:101950008030FFF7E5FD18E01A48844209D10121E3
:101960004804FFF7DDFD00214FF40030FFF7D8FDFC
:101970000BE01548844208D101218804FFF7D0FD0F
:1019800000214FF48020FFF7CBFD10BD002C01405B
:101990000004004000080040000C0040001000401F
:1019A0000014004000340140004C01400050014050
:1019B0000054014000180040001C0040002000407E
:1019C00000400140004401400048014070B500243F
:1019D00000220023058C4FF6EF7635400584028CFB
:1019E0008388048B48F6FF752C404FF6FF452C404A
:1019F0000D884FF6FF7606EA05252C434FF6DF7576
:101A00002A400D8906EA05152A434D8806EA051580
:101A10002A43154DA84202D0144DA8421DD14FF6BD
:101A20007F752A404D894FF6FF7606EA05152A4351
:101A30004FF6BF752A408D8806EA05152A434FF6F2
:101A4000FF352B404FF2FF752B408D8906EA850547
:101A50002B43CD8906EA85052B4383800483CD88FB
:101A60000587028470BD0000002C01400034014055
:101A70000A460021018B4FF2FF7319404FF6FF73A6
:101A800003EA02231943018370470187704700006E
:101A9000002202881D4B98420ED01D4B98420BD05D
:101AA000B0F1804F08D01B4B984205D01A4B98429A
:101AB00002D01A4B984204D14FF68F731A404B88CC
:101AC0001A43174B984207D0164B984204D04FF652
:101AD000FF431A40CB881A4302808B8883850B888A
:101AE00003850A4B98420BD0094B984208D00E4B05
:101AF000984205D00D4B984202D00D4B984201D12F
:101B00000B7A03860123838270470000002C01407A
:101B1000003401400004004000080040000C004078
:101B2000001000400014004000400140004401400B
:101B3000004801401FE00024FEF716FB0446FEF7B4
:101B400087FD0D4908802046FEF712FB0120FFF7B4
:101B5000A5F90A480088401C084908800846008802
:101B6000B0F57A7F06D10020088005480088401C27
:101B70000349088000BFDEE70404002000040020C1
:101B80000604002002E00120FFF788F9FBE703E0EC
:101B90004FF4FA70FFF782F9FAE74FF47A70FFF723
:101BA0007DF903E04FF4FA70FFF778F9FAE74FF4A4
:101BB000FA70FFF773F902E06420FFF76FF9FBE7B3
:101BC00002E07820FFF76AF9FBE7000000B587B074
:101BD00001210820FFF774FC1548FFF703FE0920D8
:101BE000ADF814000020ADF81000ADF81600ADF807
:101BF000120004A90E48FFF74BFF7020ADF800005B
:101C00000120ADF802000020ADF808006946084840
:101C1000FFF7DCFE08210648FFF72AFF05210448EC
:101C2000FFF733FF01210248FFF7D0FD07B000BDE9
:101C3000000C004010B540F22551164800F09BF80A
:101C400020B140F22551134800F07AF840F2277194
:101C5000104800F090F820B140F227710D4800F0D4
:101C60006FF840F226610B4800F085F888B10A4809
:101C7000008841280DD107480C30008810F4806F8F
:101C800007D104481030008820F440500149103139
:101C9000088010BD003801400204002010B540F259
:101CA0002551204800F067F8C0B100201E49087097
:101CB0001C4800F01BF9C1B21C481D4A127881541F
:101CC0001B480078632804D219480078401C184942
:101CD000087040F22551134800F032F840F22771A5
:101CE000104800F048F8E0B112480078124909782D
:101CF00088420BDA0F4802780078401C0D4B1870B0
:101D00000E48815C074800F0F6F805E0002240F23A
:101D10002771044800F059F840F22771014800F09B
:101D20000FF810BD004400400B040020C404002044
:101D30000A04002009040020080400206004002098
:101D400010B500220023A1F510646A3C00D100BF49
:101D50000A1201249440A3B2DC43048010BD21B1D7
:101D6000828942F40052828104E082894DF6FF7339
:101D70001A408281704770B5024600240023002576
:101D80000020A1F510666A3E00D100BFC1F34215E4
:101D900001F01F03012606FA03F3012D02D19689F3
:101DA000334006E0022D02D1168A334001E0968AC4
:101DB00033400C12012606FA04F41688344013B19D
:101DC0000CB1012000E0002070BDF0B503460024F6
:101DD000002600250020A1F510676A3F00D100BF52
:101DE0001846C1F3421401F01F06012707FA06F551
:101DF000012C01D10C3004E0022C01D1103000E0A4
:101E000014301AB107682F43076002E00768AF4338
:101E10000760F0BD2DE9F04786B005460E46002468
:101E2000A24600BFA1460027B08900B100BF2F46DF
:101E30002C8A4CF6FF700440F08804432C82AC8955
:101E40004EF6F3100440B088318908437189084385
:101E50000443AC81AC8A4FF6FF400440B089044390
:101E6000AC8201A8FFF76CFB1F48874202D1DDF866
:101E700010A001E0DDF80CA0A88910F4004F08D0F4
:101E80000AEBCA0000EB0A1031684900B0FBF1F818
:101E900007E00AEBCA0000EB0A1031688900B0FBCA
:101EA000F1F86420B8FBF0F004012009642101FB83
:101EB0001089A88910F4004F08D0322000EBC90027
:101EC000B0FBF1F000F00700044308E0322000EB23
:101ED00009106421B0FBF1F000F00F0004432C81E5
:101EE00006B0BDE8F0870000003801400146888850
:101EF000C0F308007047C1F308028280704700BF3A
:101F0000FEE702E008C8121F08C1002AFAD1704794
:101F10007047002001E001C1121F002AFBD1704769
:101F200010B5FEF7ADFB16490880FEF7C7FBFEF7BC
:101F30007FF93220FEF7D9FAFEF78AFB11490880B3
:101F400006E03220FEF7D1FAFEF782FB0D49088049
:101F50000C48B0F900009628F3DB6420FEF7C5FAC0
:101F6000FFF734FEFEF79AFAFEF773FCFFF7CCFB9F
:101F7000FEF7F4FCFEF752FAFEF75EFD002010BDFE
:101F800002040020040400200000010002000100FF
:101F90000300010002000100040001000200010032
:101FA0000300010002000100050001000200010021
:101FB0000300010002000100040001000200010012
:101FC0000300010002000100060001000200010000
:101FD00003000100020001000400010002000100F2
:101FE00003000100020001000500010002000100E1
:101FF00003000100020001000400010002000100D2
:1020000003000100020001000700010002000100BE
:1020100003000100020001000400010002000100B1
:1020200003000100020001000500010002000100A0
:102030000300010002000100040001000200010091
:10204000030001000200010006000100020001007F
:102050000300010002000100040001000200010071
:102060000300010002000100050001000200010060
:102070000300010002000100040001000200010051
:102080000300010002000100A82000080004002055
:1020900060000000021F0008082100086004002002
:1020A000D0380000121F00080000000000000000EF
:1020B0000000000000000000000000000000000020
:1020C00001020304010203040607080902040608CA
:1020D0000000000000000000000000000000000000
:1020E00000000000000000000000000000000000F0
:1020F00000000000000000000000000000000000E0
:082100000000000000000000D7
:0400000508000131BD
:00000001FF
